{
	"contracts/NestToken.sol": {
		"NestedToken": {
			"abi": [
				{
					"inputs": [],
					"stateMutability": "nonpayable",
					"type": "constructor"
				},
				{
					"anonymous": false,
					"inputs": [
						{
							"indexed": true,
							"internalType": "address",
							"name": "tokenOwner",
							"type": "address"
						},
						{
							"indexed": true,
							"internalType": "address",
							"name": "spender",
							"type": "address"
						},
						{
							"indexed": false,
							"internalType": "uint256",
							"name": "tokens",
							"type": "uint256"
						}
					],
					"name": "Approval",
					"type": "event"
				},
				{
					"anonymous": false,
					"inputs": [
						{
							"indexed": true,
							"internalType": "address",
							"name": "from",
							"type": "address"
						},
						{
							"indexed": true,
							"internalType": "address",
							"name": "to",
							"type": "address"
						},
						{
							"indexed": false,
							"internalType": "uint256",
							"name": "tokens",
							"type": "uint256"
						}
					],
					"name": "Transfer",
					"type": "event"
				},
				{
					"inputs": [],
					"name": "_totalSupply",
					"outputs": [
						{
							"internalType": "uint256",
							"name": "",
							"type": "uint256"
						}
					],
					"stateMutability": "view",
					"type": "function"
				},
				{
					"inputs": [
						{
							"internalType": "address",
							"name": "tokenOwner",
							"type": "address"
						},
						{
							"internalType": "address",
							"name": "spender",
							"type": "address"
						}
					],
					"name": "allowance",
					"outputs": [
						{
							"internalType": "uint256",
							"name": "remaining",
							"type": "uint256"
						}
					],
					"stateMutability": "view",
					"type": "function"
				},
				{
					"inputs": [
						{
							"internalType": "address",
							"name": "spender",
							"type": "address"
						},
						{
							"internalType": "uint256",
							"name": "tokens",
							"type": "uint256"
						}
					],
					"name": "approve",
					"outputs": [
						{
							"internalType": "bool",
							"name": "success",
							"type": "bool"
						}
					],
					"stateMutability": "nonpayable",
					"type": "function"
				},
				{
					"inputs": [
						{
							"internalType": "address",
							"name": "tokenOwner",
							"type": "address"
						}
					],
					"name": "balanceOf",
					"outputs": [
						{
							"internalType": "uint256",
							"name": "balance",
							"type": "uint256"
						}
					],
					"stateMutability": "view",
					"type": "function"
				},
				{
					"inputs": [],
					"name": "decimals",
					"outputs": [
						{
							"internalType": "uint8",
							"name": "",
							"type": "uint8"
						}
					],
					"stateMutability": "view",
					"type": "function"
				},
				{
					"inputs": [],
					"name": "name",
					"outputs": [
						{
							"internalType": "string",
							"name": "",
							"type": "string"
						}
					],
					"stateMutability": "view",
					"type": "function"
				},
				{
					"inputs": [
						{
							"internalType": "uint256",
							"name": "a",
							"type": "uint256"
						},
						{
							"internalType": "uint256",
							"name": "b",
							"type": "uint256"
						}
					],
					"name": "safeAdd",
					"outputs": [
						{
							"internalType": "uint256",
							"name": "c",
							"type": "uint256"
						}
					],
					"stateMutability": "pure",
					"type": "function"
				},
				{
					"inputs": [
						{
							"internalType": "uint256",
							"name": "a",
							"type": "uint256"
						},
						{
							"internalType": "uint256",
							"name": "b",
							"type": "uint256"
						}
					],
					"name": "safeDiv",
					"outputs": [
						{
							"internalType": "uint256",
							"name": "c",
							"type": "uint256"
						}
					],
					"stateMutability": "pure",
					"type": "function"
				},
				{
					"inputs": [
						{
							"internalType": "uint256",
							"name": "a",
							"type": "uint256"
						},
						{
							"internalType": "uint256",
							"name": "b",
							"type": "uint256"
						}
					],
					"name": "safeMul",
					"outputs": [
						{
							"internalType": "uint256",
							"name": "c",
							"type": "uint256"
						}
					],
					"stateMutability": "pure",
					"type": "function"
				},
				{
					"inputs": [
						{
							"internalType": "uint256",
							"name": "a",
							"type": "uint256"
						},
						{
							"internalType": "uint256",
							"name": "b",
							"type": "uint256"
						}
					],
					"name": "safeSub",
					"outputs": [
						{
							"internalType": "uint256",
							"name": "c",
							"type": "uint256"
						}
					],
					"stateMutability": "pure",
					"type": "function"
				},
				{
					"inputs": [],
					"name": "symbol",
					"outputs": [
						{
							"internalType": "string",
							"name": "",
							"type": "string"
						}
					],
					"stateMutability": "view",
					"type": "function"
				},
				{
					"inputs": [],
					"name": "totalSupply",
					"outputs": [
						{
							"internalType": "uint256",
							"name": "",
							"type": "uint256"
						}
					],
					"stateMutability": "view",
					"type": "function"
				},
				{
					"inputs": [
						{
							"internalType": "address",
							"name": "to",
							"type": "address"
						},
						{
							"internalType": "uint256",
							"name": "tokens",
							"type": "uint256"
						}
					],
					"name": "transfer",
					"outputs": [
						{
							"internalType": "bool",
							"name": "success",
							"type": "bool"
						}
					],
					"stateMutability": "nonpayable",
					"type": "function"
				},
				{
					"inputs": [
						{
							"internalType": "address",
							"name": "from",
							"type": "address"
						},
						{
							"internalType": "address",
							"name": "to",
							"type": "address"
						},
						{
							"internalType": "uint256",
							"name": "tokens",
							"type": "uint256"
						}
					],
					"name": "transferFrom",
					"outputs": [
						{
							"internalType": "bool",
							"name": "success",
							"type": "bool"
						}
					],
					"stateMutability": "nonpayable",
					"type": "function"
				}
			],
			"devdoc": {
				"kind": "dev",
				"methods": {},
				"version": 1
			},
			"evm": {
				"assembly": "    /* \"contracts/NestToken.sol\":1258:3341  contract NestedToken is ERC20Interface, SafeMath {\r... */\n  mstore(0x40, 0x80)\n    /* \"contracts/NestToken.sol\":1742:2014  constructor() public {\r... */\n  callvalue\n  dup1\n  iszero\n  tag_1\n  jumpi\n  0x00\n  dup1\n  revert\ntag_1:\n  pop\n    /* \"contracts/NestToken.sol\":1774:1794  name = \"NestedToken\" */\n  mload(0x40)\n  dup1\n  0x40\n  add\n  0x40\n  mstore\n  dup1\n  0x0b\n  dup2\n  mstore\n  0x20\n  add\n  0x4e6573746564546f6b656e000000000000000000000000000000000000000000\n  dup2\n  mstore\n  pop\n    /* \"contracts/NestToken.sol\":1774:1778  name */\n  0x00\n    /* \"contracts/NestToken.sol\":1774:1794  name = \"NestedToken\" */\n  swap1\n  dup1\n  mload\n  swap1\n  0x20\n  add\n  swap1\n  tag_4\n  swap3\n  swap2\n  swap1\n  tag_5\n  jump\t// in\ntag_4:\n  pop\n    /* \"contracts/NestToken.sol\":1805:1819  symbol = \"NST\" */\n  mload(0x40)\n  dup1\n  0x40\n  add\n  0x40\n  mstore\n  dup1\n  0x03\n  dup2\n  mstore\n  0x20\n  add\n  0x4e53540000000000000000000000000000000000000000000000000000000000\n  dup2\n  mstore\n  pop\n    /* \"contracts/NestToken.sol\":1805:1811  symbol */\n  0x01\n    /* \"contracts/NestToken.sol\":1805:1819  symbol = \"NST\" */\n  swap1\n  dup1\n  mload\n  swap1\n  0x20\n  add\n  swap1\n  tag_6\n  swap3\n  swap2\n  swap1\n  tag_5\n  jump\t// in\ntag_6:\n  pop\n    /* \"contracts/NestToken.sol\":1841:1843  18 */\n  0x12\n    /* \"contracts/NestToken.sol\":1830:1838  decimals */\n  0x02\n  0x00\n    /* \"contracts/NestToken.sol\":1830:1843  decimals = 18 */\n  0x0100\n  exp\n  dup2\n  sload\n  dup2\n  0xff\n  mul\n  not\n  and\n  swap1\n  dup4\n  0xff\n  and\n  mul\n  or\n  swap1\n  sstore\n  pop\n    /* \"contracts/NestToken.sol\":1869:1896  100000000000000000000000000 */\n  0x52b7d2dcc80cd2e4000000\n    /* \"contracts/NestToken.sol\":1854:1866  _totalSupply */\n  0x03\n    /* \"contracts/NestToken.sol\":1854:1896  _totalSupply = 100000000000000000000000000 */\n  dup2\n  swap1\n  sstore\n  pop\n    /* \"contracts/NestToken.sol\":1932:1944  _totalSupply */\n  sload(0x03)\n    /* \"contracts/NestToken.sol\":1909:1917  balances */\n  0x04\n    /* \"contracts/NestToken.sol\":1909:1929  balances[msg.sender] */\n  0x00\n    /* \"contracts/NestToken.sol\":1918:1928  msg.sender */\n  caller\n    /* \"contracts/NestToken.sol\":1909:1929  balances[msg.sender] */\n  0xffffffffffffffffffffffffffffffffffffffff\n  and\n  0xffffffffffffffffffffffffffffffffffffffff\n  and\n  dup2\n  mstore\n  0x20\n  add\n  swap1\n  dup2\n  mstore\n  0x20\n  add\n  0x00\n  keccak256\n    /* \"contracts/NestToken.sol\":1909:1944  balances[msg.sender] = _totalSupply */\n  dup2\n  swap1\n  sstore\n  pop\n    /* \"contracts/NestToken.sol\":1981:1991  msg.sender */\n  caller\n    /* \"contracts/NestToken.sol\":1960:2006  Transfer(address(0), msg.sender, _totalSupply) */\n  0xffffffffffffffffffffffffffffffffffffffff\n  and\n    /* \"contracts/NestToken.sol\":1977:1978  0 */\n  0x00\n    /* \"contracts/NestToken.sol\":1960:2006  Transfer(address(0), msg.sender, _totalSupply) */\n  0xffffffffffffffffffffffffffffffffffffffff\n  and\n  0xddf252ad1be2c89b69c2b068fc378daa952ba7f163c4a11628f55a4df523b3ef\n    /* \"contracts/NestToken.sol\":1993:2005  _totalSupply */\n  sload(0x03)\n    /* \"contracts/NestToken.sol\":1960:2006  Transfer(address(0), msg.sender, _totalSupply) */\n  mload(0x40)\n  tag_7\n  swap2\n  swap1\n  tag_8\n  jump\t// in\ntag_7:\n  mload(0x40)\n  dup1\n  swap2\n  sub\n  swap1\n  log3\n    /* \"contracts/NestToken.sol\":1258:3341  contract NestedToken is ERC20Interface, SafeMath {\r... */\n  jump(tag_9)\ntag_5:\n  dup3\n  dup1\n  sload\n  tag_10\n  swap1\n  tag_11\n  jump\t// in\ntag_10:\n  swap1\n  0x00\n  mstore\n  keccak256(0x00, 0x20)\n  swap1\n  0x1f\n  add\n  0x20\n  swap1\n  div\n  dup2\n  add\n  swap3\n  dup3\n  tag_13\n  jumpi\n  0x00\n  dup6\n  sstore\n  jump(tag_12)\ntag_13:\n  dup3\n  0x1f\n  lt\n  tag_14\n  jumpi\n  dup1\n  mload\n  not(0xff)\n  and\n  dup4\n  dup1\n  add\n  or\n  dup6\n  sstore\n  jump(tag_12)\ntag_14:\n  dup3\n  dup1\n  add\n  0x01\n  add\n  dup6\n  sstore\n  dup3\n  iszero\n  tag_12\n  jumpi\n  swap2\n  dup3\n  add\ntag_15:\n  dup3\n  dup2\n  gt\n  iszero\n  tag_16\n  jumpi\n  dup3\n  mload\n  dup3\n  sstore\n  swap2\n  0x20\n  add\n  swap2\n  swap1\n  0x01\n  add\n  swap1\n  jump(tag_15)\ntag_16:\ntag_12:\n  pop\n  swap1\n  pop\n  tag_17\n  swap2\n  swap1\n  tag_18\n  jump\t// in\ntag_17:\n  pop\n  swap1\n  jump\t// out\ntag_18:\ntag_19:\n  dup1\n  dup3\n  gt\n  iszero\n  tag_20\n  jumpi\n  0x00\n  dup2\n  0x00\n  swap1\n  sstore\n  pop\n  0x01\n  add\n  jump(tag_19)\ntag_20:\n  pop\n  swap1\n  jump\t// out\n    /* \"#utility.yul\":7:125   */\ntag_22:\n    /* \"#utility.yul\":94:118   */\n  tag_24\n    /* \"#utility.yul\":112:117   */\n  dup2\n    /* \"#utility.yul\":94:118   */\n  tag_25\n  jump\t// in\ntag_24:\n    /* \"#utility.yul\":89:92   */\n  dup3\n    /* \"#utility.yul\":82:119   */\n  mstore\n    /* \"#utility.yul\":72:125   */\n  pop\n  pop\n  jump\t// out\n    /* \"#utility.yul\":131:353   */\ntag_8:\n    /* \"#utility.yul\":224:228   */\n  0x00\n    /* \"#utility.yul\":262:264   */\n  0x20\n    /* \"#utility.yul\":251:260   */\n  dup3\n    /* \"#utility.yul\":247:265   */\n  add\n    /* \"#utility.yul\":239:265   */\n  swap1\n  pop\n    /* \"#utility.yul\":275:346   */\n  tag_27\n    /* \"#utility.yul\":343:344   */\n  0x00\n    /* \"#utility.yul\":332:341   */\n  dup4\n    /* \"#utility.yul\":328:345   */\n  add\n    /* \"#utility.yul\":319:325   */\n  dup5\n    /* \"#utility.yul\":275:346   */\n  tag_22\n  jump\t// in\ntag_27:\n    /* \"#utility.yul\":229:353   */\n  swap3\n  swap2\n  pop\n  pop\n  jump\t// out\n    /* \"#utility.yul\":359:436   */\ntag_25:\n    /* \"#utility.yul\":396:403   */\n  0x00\n    /* \"#utility.yul\":425:430   */\n  dup2\n    /* \"#utility.yul\":414:430   */\n  swap1\n  pop\n    /* \"#utility.yul\":404:436   */\n  swap2\n  swap1\n  pop\n  jump\t// out\n    /* \"#utility.yul\":442:762   */\ntag_11:\n    /* \"#utility.yul\":486:492   */\n  0x00\n    /* \"#utility.yul\":523:524   */\n  0x02\n    /* \"#utility.yul\":517:521   */\n  dup3\n    /* \"#utility.yul\":513:525   */\n  div\n    /* \"#utility.yul\":503:525   */\n  swap1\n  pop\n    /* \"#utility.yul\":570:571   */\n  0x01\n    /* \"#utility.yul\":564:568   */\n  dup3\n    /* \"#utility.yul\":560:572   */\n  and\n    /* \"#utility.yul\":591:609   */\n  dup1\n    /* \"#utility.yul\":581:583   */\n  tag_30\n  jumpi\n    /* \"#utility.yul\":647:651   */\n  0x7f\n    /* \"#utility.yul\":639:645   */\n  dup3\n    /* \"#utility.yul\":635:652   */\n  and\n    /* \"#utility.yul\":625:652   */\n  swap2\n  pop\n    /* \"#utility.yul\":581:583   */\ntag_30:\n    /* \"#utility.yul\":709:711   */\n  0x20\n    /* \"#utility.yul\":701:707   */\n  dup3\n    /* \"#utility.yul\":698:712   */\n  lt\n    /* \"#utility.yul\":678:696   */\n  dup2\n    /* \"#utility.yul\":675:713   */\n  eq\n    /* \"#utility.yul\":672:674   */\n  iszero\n  tag_31\n  jumpi\n    /* \"#utility.yul\":728:746   */\n  tag_32\n  tag_33\n  jump\t// in\ntag_32:\n    /* \"#utility.yul\":672:674   */\ntag_31:\n    /* \"#utility.yul\":493:762   */\n  pop\n  swap2\n  swap1\n  pop\n  jump\t// out\n    /* \"#utility.yul\":768:948   */\ntag_33:\n    /* \"#utility.yul\":816:893   */\n  0x4e487b7100000000000000000000000000000000000000000000000000000000\n    /* \"#utility.yul\":813:814   */\n  0x00\n    /* \"#utility.yul\":806:894   */\n  mstore\n    /* \"#utility.yul\":913:917   */\n  0x22\n    /* \"#utility.yul\":910:911   */\n  0x04\n    /* \"#utility.yul\":903:918   */\n  mstore\n    /* \"#utility.yul\":937:941   */\n  0x24\n    /* \"#utility.yul\":934:935   */\n  0x00\n    /* \"#utility.yul\":927:942   */\n  revert\n    /* \"contracts/NestToken.sol\":1258:3341  contract NestedToken is ERC20Interface, SafeMath {\r... */\ntag_9:\n  dataSize(sub_0)\n  dup1\n  dataOffset(sub_0)\n  0x00\n  codecopy\n  0x00\n  return\nstop\n\nsub_0: assembly {\n        /* \"contracts/NestToken.sol\":1258:3341  contract NestedToken is ERC20Interface, SafeMath {\r... */\n      mstore(0x40, 0x80)\n      callvalue\n      dup1\n      iszero\n      tag_1\n      jumpi\n      0x00\n      dup1\n      revert\n    tag_1:\n      pop\n      jumpi(tag_2, lt(calldatasize, 0x04))\n      shr(0xe0, calldataload(0x00))\n      dup1\n      0x95d89b41\n      gt\n      tag_17\n      jumpi\n      dup1\n      0xb5931f7c\n      gt\n      tag_18\n      jumpi\n      dup1\n      0xb5931f7c\n      eq\n      tag_13\n      jumpi\n      dup1\n      0xd05c78da\n      eq\n      tag_14\n      jumpi\n      dup1\n      0xdd62ed3e\n      eq\n      tag_15\n      jumpi\n      dup1\n      0xe6cb9013\n      eq\n      tag_16\n      jumpi\n      jump(tag_2)\n    tag_18:\n      dup1\n      0x95d89b41\n      eq\n      tag_10\n      jumpi\n      dup1\n      0xa293d1e8\n      eq\n      tag_11\n      jumpi\n      dup1\n      0xa9059cbb\n      eq\n      tag_12\n      jumpi\n      jump(tag_2)\n    tag_17:\n      dup1\n      0x23b872dd\n      gt\n      tag_19\n      jumpi\n      dup1\n      0x23b872dd\n      eq\n      tag_6\n      jumpi\n      dup1\n      0x313ce567\n      eq\n      tag_7\n      jumpi\n      dup1\n      0x3eaaf86b\n      eq\n      tag_8\n      jumpi\n      dup1\n      0x70a08231\n      eq\n      tag_9\n      jumpi\n      jump(tag_2)\n    tag_19:\n      dup1\n      0x06fdde03\n      eq\n      tag_3\n      jumpi\n      dup1\n      0x095ea7b3\n      eq\n      tag_4\n      jumpi\n      dup1\n      0x18160ddd\n      eq\n      tag_5\n      jumpi\n    tag_2:\n      0x00\n      dup1\n      revert\n        /* \"contracts/NestToken.sol\":1314:1332  string public name */\n    tag_3:\n      tag_20\n      tag_21\n      jump\t// in\n    tag_20:\n      mload(0x40)\n      tag_22\n      swap2\n      swap1\n      tag_23\n      jump\t// in\n    tag_22:\n      mload(0x40)\n      dup1\n      swap2\n      sub\n      swap1\n      return\n        /* \"contracts/NestToken.sol\":2452:2669  function approve(address spender, uint tokens) public override returns (bool success) {\r... */\n    tag_4:\n      tag_24\n      0x04\n      dup1\n      calldatasize\n      sub\n      dup2\n      add\n      swap1\n      tag_25\n      swap2\n      swap1\n      tag_26\n      jump\t// in\n    tag_25:\n      tag_27\n      jump\t// in\n    tag_24:\n      mload(0x40)\n      tag_28\n      swap2\n      swap1\n      tag_29\n      jump\t// in\n    tag_28:\n      mload(0x40)\n      dup1\n      swap2\n      sub\n      swap1\n      return\n        /* \"contracts/NestToken.sol\":2022:2143  function totalSupply() public override view returns (uint) {\r... */\n    tag_5:\n      tag_30\n      tag_31\n      jump\t// in\n    tag_30:\n      mload(0x40)\n      tag_32\n      swap2\n      swap1\n      tag_33\n      jump\t// in\n    tag_32:\n      mload(0x40)\n      dup1\n      swap2\n      sub\n      swap1\n      return\n        /* \"contracts/NestToken.sol\":2971:3338  function transferFrom(address from, address to, uint tokens) public override returns (bool success) {\r... */\n    tag_6:\n      tag_34\n      0x04\n      dup1\n      calldatasize\n      sub\n      dup2\n      add\n      swap1\n      tag_35\n      swap2\n      swap1\n      tag_36\n      jump\t// in\n    tag_35:\n      tag_37\n      jump\t// in\n    tag_34:\n      mload(0x40)\n      tag_38\n      swap2\n      swap1\n      tag_29\n      jump\t// in\n    tag_38:\n      mload(0x40)\n      dup1\n      swap2\n      sub\n      swap1\n      return\n        /* \"contracts/NestToken.sol\":1366:1387  uint8 public decimals */\n    tag_7:\n      tag_39\n      tag_40\n      jump\t// in\n    tag_39:\n      mload(0x40)\n      tag_41\n      swap2\n      swap1\n      tag_42\n      jump\t// in\n    tag_41:\n      mload(0x40)\n      dup1\n      swap2\n      sub\n      swap1\n      return\n        /* \"contracts/NestToken.sol\":1464:1491  uint256 public _totalSupply */\n    tag_8:\n      tag_43\n      tag_44\n      jump\t// in\n    tag_43:\n      mload(0x40)\n      tag_45\n      swap2\n      swap1\n      tag_33\n      jump\t// in\n    tag_45:\n      mload(0x40)\n      dup1\n      swap2\n      sub\n      swap1\n      return\n        /* \"contracts/NestToken.sol\":2151:2280  function balanceOf(address tokenOwner) public override view returns (uint balance) {\r... */\n    tag_9:\n      tag_46\n      0x04\n      dup1\n      calldatasize\n      sub\n      dup2\n      add\n      swap1\n      tag_47\n      swap2\n      swap1\n      tag_48\n      jump\t// in\n    tag_47:\n      tag_49\n      jump\t// in\n    tag_46:\n      mload(0x40)\n      tag_50\n      swap2\n      swap1\n      tag_33\n      jump\t// in\n    tag_50:\n      mload(0x40)\n      dup1\n      swap2\n      sub\n      swap1\n      return\n        /* \"contracts/NestToken.sol\":1339:1359  string public symbol */\n    tag_10:\n      tag_51\n      tag_52\n      jump\t// in\n    tag_51:\n      mload(0x40)\n      tag_53\n      swap2\n      swap1\n      tag_23\n      jump\t// in\n    tag_53:\n      mload(0x40)\n      dup1\n      swap2\n      sub\n      swap1\n      return\n        /* \"contracts/NestToken.sol\":932:1034  function safeSub(uint a, uint b) public pure returns (uint c) {\r... */\n    tag_11:\n      tag_54\n      0x04\n      dup1\n      calldatasize\n      sub\n      dup2\n      add\n      swap1\n      tag_55\n      swap2\n      swap1\n      tag_56\n      jump\t// in\n    tag_55:\n      tag_57\n      jump\t// in\n    tag_54:\n      mload(0x40)\n      tag_58\n      swap2\n      swap1\n      tag_33\n      jump\t// in\n    tag_58:\n      mload(0x40)\n      dup1\n      swap2\n      sub\n      swap1\n      return\n        /* \"contracts/NestToken.sol\":2677:2963  function transfer(address to, uint tokens) public override returns (bool success) {\r... */\n    tag_12:\n      tag_59\n      0x04\n      dup1\n      calldatasize\n      sub\n      dup2\n      add\n      swap1\n      tag_60\n      swap2\n      swap1\n      tag_26\n      jump\t// in\n    tag_60:\n      tag_61\n      jump\t// in\n    tag_59:\n      mload(0x40)\n      tag_62\n      swap2\n      swap1\n      tag_29\n      jump\t// in\n    tag_62:\n      mload(0x40)\n      dup1\n      swap2\n      sub\n      swap1\n      return\n        /* \"contracts/NestToken.sol\":1143:1249  function safeDiv(uint a, uint b) public pure returns (uint c) { require(b > 0);\r... */\n    tag_13:\n      tag_63\n      0x04\n      dup1\n      calldatasize\n      sub\n      dup2\n      add\n      swap1\n      tag_64\n      swap2\n      swap1\n      tag_56\n      jump\t// in\n    tag_64:\n      tag_65\n      jump\t// in\n    tag_63:\n      mload(0x40)\n      tag_66\n      swap2\n      swap1\n      tag_33\n      jump\t// in\n    tag_66:\n      mload(0x40)\n      dup1\n      swap2\n      sub\n      swap1\n      return\n        /* \"contracts/NestToken.sol\":1035:1142  function safeMul(uint a, uint b) public pure returns (uint c) { c = a * b; require(a == 0 || c / a == b); } */\n    tag_14:\n      tag_67\n      0x04\n      dup1\n      calldatasize\n      sub\n      dup2\n      add\n      swap1\n      tag_68\n      swap2\n      swap1\n      tag_56\n      jump\t// in\n    tag_68:\n      tag_69\n      jump\t// in\n    tag_67:\n      mload(0x40)\n      tag_70\n      swap2\n      swap1\n      tag_33\n      jump\t// in\n    tag_70:\n      mload(0x40)\n      dup1\n      swap2\n      sub\n      swap1\n      return\n        /* \"contracts/NestToken.sol\":2288:2444  function allowance(address tokenOwner, address spender) public override view returns (uint remaining) {\r... */\n    tag_15:\n      tag_71\n      0x04\n      dup1\n      calldatasize\n      sub\n      dup2\n      add\n      swap1\n      tag_72\n      swap2\n      swap1\n      tag_73\n      jump\t// in\n    tag_72:\n      tag_74\n      jump\t// in\n    tag_71:\n      mload(0x40)\n      tag_75\n      swap2\n      swap1\n      tag_33\n      jump\t// in\n    tag_75:\n      mload(0x40)\n      dup1\n      swap2\n      sub\n      swap1\n      return\n        /* \"contracts/NestToken.sol\":810:926  function safeAdd(uint a, uint b) public pure returns (uint c) {\r... */\n    tag_16:\n      tag_76\n      0x04\n      dup1\n      calldatasize\n      sub\n      dup2\n      add\n      swap1\n      tag_77\n      swap2\n      swap1\n      tag_56\n      jump\t// in\n    tag_77:\n      tag_78\n      jump\t// in\n    tag_76:\n      mload(0x40)\n      tag_79\n      swap2\n      swap1\n      tag_33\n      jump\t// in\n    tag_79:\n      mload(0x40)\n      dup1\n      swap2\n      sub\n      swap1\n      return\n        /* \"contracts/NestToken.sol\":1314:1332  string public name */\n    tag_21:\n      0x00\n      dup1\n      sload\n      tag_80\n      swap1\n      tag_81\n      jump\t// in\n    tag_80:\n      dup1\n      0x1f\n      add\n      0x20\n      dup1\n      swap2\n      div\n      mul\n      0x20\n      add\n      mload(0x40)\n      swap1\n      dup2\n      add\n      0x40\n      mstore\n      dup1\n      swap3\n      swap2\n      swap1\n      dup2\n      dup2\n      mstore\n      0x20\n      add\n      dup3\n      dup1\n      sload\n      tag_82\n      swap1\n      tag_81\n      jump\t// in\n    tag_82:\n      dup1\n      iszero\n      tag_83\n      jumpi\n      dup1\n      0x1f\n      lt\n      tag_84\n      jumpi\n      0x0100\n      dup1\n      dup4\n      sload\n      div\n      mul\n      dup4\n      mstore\n      swap2\n      0x20\n      add\n      swap2\n      jump(tag_83)\n    tag_84:\n      dup3\n      add\n      swap2\n      swap1\n      0x00\n      mstore\n      keccak256(0x00, 0x20)\n      swap1\n    tag_85:\n      dup2\n      sload\n      dup2\n      mstore\n      swap1\n      0x01\n      add\n      swap1\n      0x20\n      add\n      dup1\n      dup4\n      gt\n      tag_85\n      jumpi\n      dup3\n      swap1\n      sub\n      0x1f\n      and\n      dup3\n      add\n      swap2\n    tag_83:\n      pop\n      pop\n      pop\n      pop\n      pop\n      dup2\n      jump\t// out\n        /* \"contracts/NestToken.sol\":2452:2669  function approve(address spender, uint tokens) public override returns (bool success) {\r... */\n    tag_27:\n        /* \"contracts/NestToken.sol\":2524:2536  bool success */\n      0x00\n        /* \"contracts/NestToken.sol\":2580:2586  tokens */\n      dup2\n        /* \"contracts/NestToken.sol\":2549:2556  allowed */\n      0x05\n        /* \"contracts/NestToken.sol\":2549:2568  allowed[msg.sender] */\n      0x00\n        /* \"contracts/NestToken.sol\":2557:2567  msg.sender */\n      caller\n        /* \"contracts/NestToken.sol\":2549:2568  allowed[msg.sender] */\n      0xffffffffffffffffffffffffffffffffffffffff\n      and\n      0xffffffffffffffffffffffffffffffffffffffff\n      and\n      dup2\n      mstore\n      0x20\n      add\n      swap1\n      dup2\n      mstore\n      0x20\n      add\n      0x00\n      keccak256\n        /* \"contracts/NestToken.sol\":2549:2577  allowed[msg.sender][spender] */\n      0x00\n        /* \"contracts/NestToken.sol\":2569:2576  spender */\n      dup6\n        /* \"contracts/NestToken.sol\":2549:2577  allowed[msg.sender][spender] */\n      0xffffffffffffffffffffffffffffffffffffffff\n      and\n      0xffffffffffffffffffffffffffffffffffffffff\n      and\n      dup2\n      mstore\n      0x20\n      add\n      swap1\n      dup2\n      mstore\n      0x20\n      add\n      0x00\n      keccak256\n        /* \"contracts/NestToken.sol\":2549:2586  allowed[msg.sender][spender] = tokens */\n      dup2\n      swap1\n      sstore\n      pop\n        /* \"contracts/NestToken.sol\":2623:2630  spender */\n      dup3\n        /* \"contracts/NestToken.sol\":2602:2639  Approval(msg.sender, spender, tokens) */\n      0xffffffffffffffffffffffffffffffffffffffff\n      and\n        /* \"contracts/NestToken.sol\":2611:2621  msg.sender */\n      caller\n        /* \"contracts/NestToken.sol\":2602:2639  Approval(msg.sender, spender, tokens) */\n      0xffffffffffffffffffffffffffffffffffffffff\n      and\n      0x8c5be1e5ebec7d5bd14f71427d1e84f3dd0314c0f7b2291e5b200ac8c7c3b925\n        /* \"contracts/NestToken.sol\":2632:2638  tokens */\n      dup5\n        /* \"contracts/NestToken.sol\":2602:2639  Approval(msg.sender, spender, tokens) */\n      mload(0x40)\n      tag_87\n      swap2\n      swap1\n      tag_33\n      jump\t// in\n    tag_87:\n      mload(0x40)\n      dup1\n      swap2\n      sub\n      swap1\n      log3\n        /* \"contracts/NestToken.sol\":2657:2661  true */\n      0x01\n        /* \"contracts/NestToken.sol\":2650:2661  return true */\n      swap1\n      pop\n        /* \"contracts/NestToken.sol\":2452:2669  function approve(address spender, uint tokens) public override returns (bool success) {\r... */\n      swap3\n      swap2\n      pop\n      pop\n      jump\t// out\n        /* \"contracts/NestToken.sol\":2022:2143  function totalSupply() public override view returns (uint) {\r... */\n    tag_31:\n        /* \"contracts/NestToken.sol\":2075:2079  uint */\n      0x00\n        /* \"contracts/NestToken.sol\":2115:2123  balances */\n      0x04\n        /* \"contracts/NestToken.sol\":2115:2135  balances[address(0)] */\n      0x00\n        /* \"contracts/NestToken.sol\":2132:2133  0 */\n      dup1\n        /* \"contracts/NestToken.sol\":2115:2135  balances[address(0)] */\n      0xffffffffffffffffffffffffffffffffffffffff\n      and\n      0xffffffffffffffffffffffffffffffffffffffff\n      and\n      dup2\n      mstore\n      0x20\n      add\n      swap1\n      dup2\n      mstore\n      0x20\n      add\n      0x00\n      keccak256\n      sload\n        /* \"contracts/NestToken.sol\":2099:2111  _totalSupply */\n      sload(0x03)\n        /* \"contracts/NestToken.sol\":2099:2135  _totalSupply  - balances[address(0)] */\n      tag_89\n      swap2\n      swap1\n      tag_90\n      jump\t// in\n    tag_89:\n        /* \"contracts/NestToken.sol\":2092:2135  return _totalSupply  - balances[address(0)] */\n      swap1\n      pop\n        /* \"contracts/NestToken.sol\":2022:2143  function totalSupply() public override view returns (uint) {\r... */\n      swap1\n      jump\t// out\n        /* \"contracts/NestToken.sol\":2971:3338  function transferFrom(address from, address to, uint tokens) public override returns (bool success) {\r... */\n    tag_37:\n        /* \"contracts/NestToken.sol\":3057:3069  bool success */\n      0x00\n        /* \"contracts/NestToken.sol\":3099:3130  safeSub(balances[from], tokens) */\n      tag_92\n        /* \"contracts/NestToken.sol\":3107:3115  balances */\n      0x04\n        /* \"contracts/NestToken.sol\":3107:3121  balances[from] */\n      0x00\n        /* \"contracts/NestToken.sol\":3116:3120  from */\n      dup7\n        /* \"contracts/NestToken.sol\":3107:3121  balances[from] */\n      0xffffffffffffffffffffffffffffffffffffffff\n      and\n      0xffffffffffffffffffffffffffffffffffffffff\n      and\n      dup2\n      mstore\n      0x20\n      add\n      swap1\n      dup2\n      mstore\n      0x20\n      add\n      0x00\n      keccak256\n      sload\n        /* \"contracts/NestToken.sol\":3123:3129  tokens */\n      dup4\n        /* \"contracts/NestToken.sol\":3099:3106  safeSub */\n      tag_57\n        /* \"contracts/NestToken.sol\":3099:3130  safeSub(balances[from], tokens) */\n      jump\t// in\n    tag_92:\n        /* \"contracts/NestToken.sol\":3082:3090  balances */\n      0x04\n        /* \"contracts/NestToken.sol\":3082:3096  balances[from] */\n      0x00\n        /* \"contracts/NestToken.sol\":3091:3095  from */\n      dup7\n        /* \"contracts/NestToken.sol\":3082:3096  balances[from] */\n      0xffffffffffffffffffffffffffffffffffffffff\n      and\n      0xffffffffffffffffffffffffffffffffffffffff\n      and\n      dup2\n      mstore\n      0x20\n      add\n      swap1\n      dup2\n      mstore\n      0x20\n      add\n      0x00\n      keccak256\n        /* \"contracts/NestToken.sol\":3082:3130  balances[from] = safeSub(balances[from], tokens) */\n      dup2\n      swap1\n      sstore\n      pop\n        /* \"contracts/NestToken.sol\":3169:3211  safeSub(allowed[from][msg.sender], tokens) */\n      tag_93\n        /* \"contracts/NestToken.sol\":3177:3184  allowed */\n      0x05\n        /* \"contracts/NestToken.sol\":3177:3190  allowed[from] */\n      0x00\n        /* \"contracts/NestToken.sol\":3185:3189  from */\n      dup7\n        /* \"contracts/NestToken.sol\":3177:3190  allowed[from] */\n      0xffffffffffffffffffffffffffffffffffffffff\n      and\n      0xffffffffffffffffffffffffffffffffffffffff\n      and\n      dup2\n      mstore\n      0x20\n      add\n      swap1\n      dup2\n      mstore\n      0x20\n      add\n      0x00\n      keccak256\n        /* \"contracts/NestToken.sol\":3177:3202  allowed[from][msg.sender] */\n      0x00\n        /* \"contracts/NestToken.sol\":3191:3201  msg.sender */\n      caller\n        /* \"contracts/NestToken.sol\":3177:3202  allowed[from][msg.sender] */\n      0xffffffffffffffffffffffffffffffffffffffff\n      and\n      0xffffffffffffffffffffffffffffffffffffffff\n      and\n      dup2\n      mstore\n      0x20\n      add\n      swap1\n      dup2\n      mstore\n      0x20\n      add\n      0x00\n      keccak256\n      sload\n        /* \"contracts/NestToken.sol\":3204:3210  tokens */\n      dup4\n        /* \"contracts/NestToken.sol\":3169:3176  safeSub */\n      tag_57\n        /* \"contracts/NestToken.sol\":3169:3211  safeSub(allowed[from][msg.sender], tokens) */\n      jump\t// in\n    tag_93:\n        /* \"contracts/NestToken.sol\":3141:3148  allowed */\n      0x05\n        /* \"contracts/NestToken.sol\":3141:3154  allowed[from] */\n      0x00\n        /* \"contracts/NestToken.sol\":3149:3153  from */\n      dup7\n        /* \"contracts/NestToken.sol\":3141:3154  allowed[from] */\n      0xffffffffffffffffffffffffffffffffffffffff\n      and\n      0xffffffffffffffffffffffffffffffffffffffff\n      and\n      dup2\n      mstore\n      0x20\n      add\n      swap1\n      dup2\n      mstore\n      0x20\n      add\n      0x00\n      keccak256\n        /* \"contracts/NestToken.sol\":3141:3166  allowed[from][msg.sender] */\n      0x00\n        /* \"contracts/NestToken.sol\":3155:3165  msg.sender */\n      caller\n        /* \"contracts/NestToken.sol\":3141:3166  allowed[from][msg.sender] */\n      0xffffffffffffffffffffffffffffffffffffffff\n      and\n      0xffffffffffffffffffffffffffffffffffffffff\n      and\n      dup2\n      mstore\n      0x20\n      add\n      swap1\n      dup2\n      mstore\n      0x20\n      add\n      0x00\n      keccak256\n        /* \"contracts/NestToken.sol\":3141:3211  allowed[from][msg.sender] = safeSub(allowed[from][msg.sender], tokens) */\n      dup2\n      swap1\n      sstore\n      pop\n        /* \"contracts/NestToken.sol\":3237:3266  safeAdd(balances[to], tokens) */\n      tag_94\n        /* \"contracts/NestToken.sol\":3245:3253  balances */\n      0x04\n        /* \"contracts/NestToken.sol\":3245:3257  balances[to] */\n      0x00\n        /* \"contracts/NestToken.sol\":3254:3256  to */\n      dup6\n        /* \"contracts/NestToken.sol\":3245:3257  balances[to] */\n      0xffffffffffffffffffffffffffffffffffffffff\n      and\n      0xffffffffffffffffffffffffffffffffffffffff\n      and\n      dup2\n      mstore\n      0x20\n      add\n      swap1\n      dup2\n      mstore\n      0x20\n      add\n      0x00\n      keccak256\n      sload\n        /* \"contracts/NestToken.sol\":3259:3265  tokens */\n      dup4\n        /* \"contracts/NestToken.sol\":3237:3244  safeAdd */\n      tag_78\n        /* \"contracts/NestToken.sol\":3237:3266  safeAdd(balances[to], tokens) */\n      jump\t// in\n    tag_94:\n        /* \"contracts/NestToken.sol\":3222:3230  balances */\n      0x04\n        /* \"contracts/NestToken.sol\":3222:3234  balances[to] */\n      0x00\n        /* \"contracts/NestToken.sol\":3231:3233  to */\n      dup6\n        /* \"contracts/NestToken.sol\":3222:3234  balances[to] */\n      0xffffffffffffffffffffffffffffffffffffffff\n      and\n      0xffffffffffffffffffffffffffffffffffffffff\n      and\n      dup2\n      mstore\n      0x20\n      add\n      swap1\n      dup2\n      mstore\n      0x20\n      add\n      0x00\n      keccak256\n        /* \"contracts/NestToken.sol\":3222:3266  balances[to] = safeAdd(balances[to], tokens) */\n      dup2\n      swap1\n      sstore\n      pop\n        /* \"contracts/NestToken.sol\":3297:3299  to */\n      dup3\n        /* \"contracts/NestToken.sol\":3282:3308  Transfer(from, to, tokens) */\n      0xffffffffffffffffffffffffffffffffffffffff\n      and\n        /* \"contracts/NestToken.sol\":3291:3295  from */\n      dup5\n        /* \"contracts/NestToken.sol\":3282:3308  Transfer(from, to, tokens) */\n      0xffffffffffffffffffffffffffffffffffffffff\n      and\n      0xddf252ad1be2c89b69c2b068fc378daa952ba7f163c4a11628f55a4df523b3ef\n        /* \"contracts/NestToken.sol\":3301:3307  tokens */\n      dup5\n        /* \"contracts/NestToken.sol\":3282:3308  Transfer(from, to, tokens) */\n      mload(0x40)\n      tag_95\n      swap2\n      swap1\n      tag_33\n      jump\t// in\n    tag_95:\n      mload(0x40)\n      dup1\n      swap2\n      sub\n      swap1\n      log3\n        /* \"contracts/NestToken.sol\":3326:3330  true */\n      0x01\n        /* \"contracts/NestToken.sol\":3319:3330  return true */\n      swap1\n      pop\n        /* \"contracts/NestToken.sol\":2971:3338  function transferFrom(address from, address to, uint tokens) public override returns (bool success) {\r... */\n      swap4\n      swap3\n      pop\n      pop\n      pop\n      jump\t// out\n        /* \"contracts/NestToken.sol\":1366:1387  uint8 public decimals */\n    tag_40:\n      0x02\n      0x00\n      swap1\n      sload\n      swap1\n      0x0100\n      exp\n      swap1\n      div\n      0xff\n      and\n      dup2\n      jump\t// out\n        /* \"contracts/NestToken.sol\":1464:1491  uint256 public _totalSupply */\n    tag_44:\n      sload(0x03)\n      dup2\n      jump\t// out\n        /* \"contracts/NestToken.sol\":2151:2280  function balanceOf(address tokenOwner) public override view returns (uint balance) {\r... */\n    tag_49:\n        /* \"contracts/NestToken.sol\":2220:2232  uint balance */\n      0x00\n        /* \"contracts/NestToken.sol\":2252:2260  balances */\n      0x04\n        /* \"contracts/NestToken.sol\":2252:2272  balances[tokenOwner] */\n      0x00\n        /* \"contracts/NestToken.sol\":2261:2271  tokenOwner */\n      dup4\n        /* \"contracts/NestToken.sol\":2252:2272  balances[tokenOwner] */\n      0xffffffffffffffffffffffffffffffffffffffff\n      and\n      0xffffffffffffffffffffffffffffffffffffffff\n      and\n      dup2\n      mstore\n      0x20\n      add\n      swap1\n      dup2\n      mstore\n      0x20\n      add\n      0x00\n      keccak256\n      sload\n        /* \"contracts/NestToken.sol\":2245:2272  return balances[tokenOwner] */\n      swap1\n      pop\n        /* \"contracts/NestToken.sol\":2151:2280  function balanceOf(address tokenOwner) public override view returns (uint balance) {\r... */\n      swap2\n      swap1\n      pop\n      jump\t// out\n        /* \"contracts/NestToken.sol\":1339:1359  string public symbol */\n    tag_52:\n      0x01\n      dup1\n      sload\n      tag_97\n      swap1\n      tag_81\n      jump\t// in\n    tag_97:\n      dup1\n      0x1f\n      add\n      0x20\n      dup1\n      swap2\n      div\n      mul\n      0x20\n      add\n      mload(0x40)\n      swap1\n      dup2\n      add\n      0x40\n      mstore\n      dup1\n      swap3\n      swap2\n      swap1\n      dup2\n      dup2\n      mstore\n      0x20\n      add\n      dup3\n      dup1\n      sload\n      tag_98\n      swap1\n      tag_81\n      jump\t// in\n    tag_98:\n      dup1\n      iszero\n      tag_99\n      jumpi\n      dup1\n      0x1f\n      lt\n      tag_100\n      jumpi\n      0x0100\n      dup1\n      dup4\n      sload\n      div\n      mul\n      dup4\n      mstore\n      swap2\n      0x20\n      add\n      swap2\n      jump(tag_99)\n    tag_100:\n      dup3\n      add\n      swap2\n      swap1\n      0x00\n      mstore\n      keccak256(0x00, 0x20)\n      swap1\n    tag_101:\n      dup2\n      sload\n      dup2\n      mstore\n      swap1\n      0x01\n      add\n      swap1\n      0x20\n      add\n      dup1\n      dup4\n      gt\n      tag_101\n      jumpi\n      dup3\n      swap1\n      sub\n      0x1f\n      and\n      dup3\n      add\n      swap2\n    tag_99:\n      pop\n      pop\n      pop\n      pop\n      pop\n      dup2\n      jump\t// out\n        /* \"contracts/NestToken.sol\":932:1034  function safeSub(uint a, uint b) public pure returns (uint c) {\r... */\n    tag_57:\n        /* \"contracts/NestToken.sol\":986:992  uint c */\n      0x00\n        /* \"contracts/NestToken.sol\":1018:1019  a */\n      dup3\n        /* \"contracts/NestToken.sol\":1013:1014  b */\n      dup3\n        /* \"contracts/NestToken.sol\":1013:1019  b <= a */\n      gt\n      iszero\n        /* \"contracts/NestToken.sol\":1005:1020  require(b <= a) */\n      tag_103\n      jumpi\n      0x00\n      dup1\n      revert\n    tag_103:\n        /* \"contracts/NestToken.sol\":1030:1031  b */\n      dup2\n        /* \"contracts/NestToken.sol\":1026:1027  a */\n      dup4\n        /* \"contracts/NestToken.sol\":1026:1031  a - b */\n      tag_104\n      swap2\n      swap1\n      tag_90\n      jump\t// in\n    tag_104:\n        /* \"contracts/NestToken.sol\":1022:1031  c = a - b */\n      swap1\n      pop\n        /* \"contracts/NestToken.sol\":932:1034  function safeSub(uint a, uint b) public pure returns (uint c) {\r... */\n      swap3\n      swap2\n      pop\n      pop\n      jump\t// out\n        /* \"contracts/NestToken.sol\":2677:2963  function transfer(address to, uint tokens) public override returns (bool success) {\r... */\n    tag_61:\n        /* \"contracts/NestToken.sol\":2745:2757  bool success */\n      0x00\n        /* \"contracts/NestToken.sol\":2793:2830  safeSub(balances[msg.sender], tokens) */\n      tag_106\n        /* \"contracts/NestToken.sol\":2801:2809  balances */\n      0x04\n        /* \"contracts/NestToken.sol\":2801:2821  balances[msg.sender] */\n      0x00\n        /* \"contracts/NestToken.sol\":2810:2820  msg.sender */\n      caller\n        /* \"contracts/NestToken.sol\":2801:2821  balances[msg.sender] */\n      0xffffffffffffffffffffffffffffffffffffffff\n      and\n      0xffffffffffffffffffffffffffffffffffffffff\n      and\n      dup2\n      mstore\n      0x20\n      add\n      swap1\n      dup2\n      mstore\n      0x20\n      add\n      0x00\n      keccak256\n      sload\n        /* \"contracts/NestToken.sol\":2823:2829  tokens */\n      dup4\n        /* \"contracts/NestToken.sol\":2793:2800  safeSub */\n      tag_57\n        /* \"contracts/NestToken.sol\":2793:2830  safeSub(balances[msg.sender], tokens) */\n      jump\t// in\n    tag_106:\n        /* \"contracts/NestToken.sol\":2770:2778  balances */\n      0x04\n        /* \"contracts/NestToken.sol\":2770:2790  balances[msg.sender] */\n      0x00\n        /* \"contracts/NestToken.sol\":2779:2789  msg.sender */\n      caller\n        /* \"contracts/NestToken.sol\":2770:2790  balances[msg.sender] */\n      0xffffffffffffffffffffffffffffffffffffffff\n      and\n      0xffffffffffffffffffffffffffffffffffffffff\n      and\n      dup2\n      mstore\n      0x20\n      add\n      swap1\n      dup2\n      mstore\n      0x20\n      add\n      0x00\n      keccak256\n        /* \"contracts/NestToken.sol\":2770:2830  balances[msg.sender] = safeSub(balances[msg.sender], tokens) */\n      dup2\n      swap1\n      sstore\n      pop\n        /* \"contracts/NestToken.sol\":2856:2885  safeAdd(balances[to], tokens) */\n      tag_107\n        /* \"contracts/NestToken.sol\":2864:2872  balances */\n      0x04\n        /* \"contracts/NestToken.sol\":2864:2876  balances[to] */\n      0x00\n        /* \"contracts/NestToken.sol\":2873:2875  to */\n      dup6\n        /* \"contracts/NestToken.sol\":2864:2876  balances[to] */\n      0xffffffffffffffffffffffffffffffffffffffff\n      and\n      0xffffffffffffffffffffffffffffffffffffffff\n      and\n      dup2\n      mstore\n      0x20\n      add\n      swap1\n      dup2\n      mstore\n      0x20\n      add\n      0x00\n      keccak256\n      sload\n        /* \"contracts/NestToken.sol\":2878:2884  tokens */\n      dup4\n        /* \"contracts/NestToken.sol\":2856:2863  safeAdd */\n      tag_78\n        /* \"contracts/NestToken.sol\":2856:2885  safeAdd(balances[to], tokens) */\n      jump\t// in\n    tag_107:\n        /* \"contracts/NestToken.sol\":2841:2849  balances */\n      0x04\n        /* \"contracts/NestToken.sol\":2841:2853  balances[to] */\n      0x00\n        /* \"contracts/NestToken.sol\":2850:2852  to */\n      dup6\n        /* \"contracts/NestToken.sol\":2841:2853  balances[to] */\n      0xffffffffffffffffffffffffffffffffffffffff\n      and\n      0xffffffffffffffffffffffffffffffffffffffff\n      and\n      dup2\n      mstore\n      0x20\n      add\n      swap1\n      dup2\n      mstore\n      0x20\n      add\n      0x00\n      keccak256\n        /* \"contracts/NestToken.sol\":2841:2885  balances[to] = safeAdd(balances[to], tokens) */\n      dup2\n      swap1\n      sstore\n      pop\n        /* \"contracts/NestToken.sol\":2922:2924  to */\n      dup3\n        /* \"contracts/NestToken.sol\":2901:2933  Transfer(msg.sender, to, tokens) */\n      0xffffffffffffffffffffffffffffffffffffffff\n      and\n        /* \"contracts/NestToken.sol\":2910:2920  msg.sender */\n      caller\n        /* \"contracts/NestToken.sol\":2901:2933  Transfer(msg.sender, to, tokens) */\n      0xffffffffffffffffffffffffffffffffffffffff\n      and\n      0xddf252ad1be2c89b69c2b068fc378daa952ba7f163c4a11628f55a4df523b3ef\n        /* \"contracts/NestToken.sol\":2926:2932  tokens */\n      dup5\n        /* \"contracts/NestToken.sol\":2901:2933  Transfer(msg.sender, to, tokens) */\n      mload(0x40)\n      tag_108\n      swap2\n      swap1\n      tag_33\n      jump\t// in\n    tag_108:\n      mload(0x40)\n      dup1\n      swap2\n      sub\n      swap1\n      log3\n        /* \"contracts/NestToken.sol\":2951:2955  true */\n      0x01\n        /* \"contracts/NestToken.sol\":2944:2955  return true */\n      swap1\n      pop\n        /* \"contracts/NestToken.sol\":2677:2963  function transfer(address to, uint tokens) public override returns (bool success) {\r... */\n      swap3\n      swap2\n      pop\n      pop\n      jump\t// out\n        /* \"contracts/NestToken.sol\":1143:1249  function safeDiv(uint a, uint b) public pure returns (uint c) { require(b > 0);\r... */\n    tag_65:\n        /* \"contracts/NestToken.sol\":1197:1203  uint c */\n      0x00\n        /* \"contracts/NestToken.sol\":1219:1220  0 */\n      dup1\n        /* \"contracts/NestToken.sol\":1215:1216  b */\n      dup3\n        /* \"contracts/NestToken.sol\":1215:1220  b > 0 */\n      gt\n        /* \"contracts/NestToken.sol\":1207:1221  require(b > 0) */\n      tag_110\n      jumpi\n      0x00\n      dup1\n      revert\n    tag_110:\n        /* \"contracts/NestToken.sol\":1240:1241  b */\n      dup2\n        /* \"contracts/NestToken.sol\":1236:1237  a */\n      dup4\n        /* \"contracts/NestToken.sol\":1236:1241  a / b */\n      tag_111\n      swap2\n      swap1\n      tag_112\n      jump\t// in\n    tag_111:\n        /* \"contracts/NestToken.sol\":1232:1241  c = a / b */\n      swap1\n      pop\n        /* \"contracts/NestToken.sol\":1143:1249  function safeDiv(uint a, uint b) public pure returns (uint c) { require(b > 0);\r... */\n      swap3\n      swap2\n      pop\n      pop\n      jump\t// out\n        /* \"contracts/NestToken.sol\":1035:1142  function safeMul(uint a, uint b) public pure returns (uint c) { c = a * b; require(a == 0 || c / a == b); } */\n    tag_69:\n        /* \"contracts/NestToken.sol\":1089:1095  uint c */\n      0x00\n        /* \"contracts/NestToken.sol\":1107:1108  b */\n      dup2\n        /* \"contracts/NestToken.sol\":1103:1104  a */\n      dup4\n        /* \"contracts/NestToken.sol\":1103:1108  a * b */\n      tag_114\n      swap2\n      swap1\n      tag_115\n      jump\t// in\n    tag_114:\n        /* \"contracts/NestToken.sol\":1099:1108  c = a * b */\n      swap1\n      pop\n        /* \"contracts/NestToken.sol\":1123:1124  0 */\n      0x00\n        /* \"contracts/NestToken.sol\":1118:1119  a */\n      dup4\n        /* \"contracts/NestToken.sol\":1118:1124  a == 0 */\n      eq\n        /* \"contracts/NestToken.sol\":1118:1138  a == 0 || c / a == b */\n      dup1\n      tag_116\n      jumpi\n      pop\n        /* \"contracts/NestToken.sol\":1137:1138  b */\n      dup2\n        /* \"contracts/NestToken.sol\":1132:1133  a */\n      dup4\n        /* \"contracts/NestToken.sol\":1128:1129  c */\n      dup3\n        /* \"contracts/NestToken.sol\":1128:1133  c / a */\n      tag_117\n      swap2\n      swap1\n      tag_112\n      jump\t// in\n    tag_117:\n        /* \"contracts/NestToken.sol\":1128:1138  c / a == b */\n      eq\n        /* \"contracts/NestToken.sol\":1118:1138  a == 0 || c / a == b */\n    tag_116:\n        /* \"contracts/NestToken.sol\":1110:1139  require(a == 0 || c / a == b) */\n      tag_118\n      jumpi\n      0x00\n      dup1\n      revert\n    tag_118:\n        /* \"contracts/NestToken.sol\":1035:1142  function safeMul(uint a, uint b) public pure returns (uint c) { c = a * b; require(a == 0 || c / a == b); } */\n      swap3\n      swap2\n      pop\n      pop\n      jump\t// out\n        /* \"contracts/NestToken.sol\":2288:2444  function allowance(address tokenOwner, address spender) public override view returns (uint remaining) {\r... */\n    tag_74:\n        /* \"contracts/NestToken.sol\":2374:2388  uint remaining */\n      0x00\n        /* \"contracts/NestToken.sol\":2408:2415  allowed */\n      0x05\n        /* \"contracts/NestToken.sol\":2408:2427  allowed[tokenOwner] */\n      0x00\n        /* \"contracts/NestToken.sol\":2416:2426  tokenOwner */\n      dup5\n        /* \"contracts/NestToken.sol\":2408:2427  allowed[tokenOwner] */\n      0xffffffffffffffffffffffffffffffffffffffff\n      and\n      0xffffffffffffffffffffffffffffffffffffffff\n      and\n      dup2\n      mstore\n      0x20\n      add\n      swap1\n      dup2\n      mstore\n      0x20\n      add\n      0x00\n      keccak256\n        /* \"contracts/NestToken.sol\":2408:2436  allowed[tokenOwner][spender] */\n      0x00\n        /* \"contracts/NestToken.sol\":2428:2435  spender */\n      dup4\n        /* \"contracts/NestToken.sol\":2408:2436  allowed[tokenOwner][spender] */\n      0xffffffffffffffffffffffffffffffffffffffff\n      and\n      0xffffffffffffffffffffffffffffffffffffffff\n      and\n      dup2\n      mstore\n      0x20\n      add\n      swap1\n      dup2\n      mstore\n      0x20\n      add\n      0x00\n      keccak256\n      sload\n        /* \"contracts/NestToken.sol\":2401:2436  return allowed[tokenOwner][spender] */\n      swap1\n      pop\n        /* \"contracts/NestToken.sol\":2288:2444  function allowance(address tokenOwner, address spender) public override view returns (uint remaining) {\r... */\n      swap3\n      swap2\n      pop\n      pop\n      jump\t// out\n        /* \"contracts/NestToken.sol\":810:926  function safeAdd(uint a, uint b) public pure returns (uint c) {\r... */\n    tag_78:\n        /* \"contracts/NestToken.sol\":864:870  uint c */\n      0x00\n        /* \"contracts/NestToken.sol\":891:892  b */\n      dup2\n        /* \"contracts/NestToken.sol\":887:888  a */\n      dup4\n        /* \"contracts/NestToken.sol\":887:892  a + b */\n      tag_121\n      swap2\n      swap1\n      tag_122\n      jump\t// in\n    tag_121:\n        /* \"contracts/NestToken.sol\":883:892  c = a + b */\n      swap1\n      pop\n        /* \"contracts/NestToken.sol\":916:917  a */\n      dup3\n        /* \"contracts/NestToken.sol\":911:912  c */\n      dup2\n        /* \"contracts/NestToken.sol\":911:917  c >= a */\n      lt\n      iszero\n        /* \"contracts/NestToken.sol\":903:918  require(c >= a) */\n      tag_123\n      jumpi\n      0x00\n      dup1\n      revert\n    tag_123:\n        /* \"contracts/NestToken.sol\":810:926  function safeAdd(uint a, uint b) public pure returns (uint c) {\r... */\n      swap3\n      swap2\n      pop\n      pop\n      jump\t// out\n        /* \"#utility.yul\":7:146   */\n    tag_125:\n        /* \"#utility.yul\":53:58   */\n      0x00\n        /* \"#utility.yul\":91:97   */\n      dup2\n        /* \"#utility.yul\":78:98   */\n      calldataload\n        /* \"#utility.yul\":69:98   */\n      swap1\n      pop\n        /* \"#utility.yul\":107:140   */\n      tag_127\n        /* \"#utility.yul\":134:139   */\n      dup2\n        /* \"#utility.yul\":107:140   */\n      tag_128\n      jump\t// in\n    tag_127:\n        /* \"#utility.yul\":59:146   */\n      swap3\n      swap2\n      pop\n      pop\n      jump\t// out\n        /* \"#utility.yul\":152:291   */\n    tag_129:\n        /* \"#utility.yul\":198:203   */\n      0x00\n        /* \"#utility.yul\":236:242   */\n      dup2\n        /* \"#utility.yul\":223:243   */\n      calldataload\n        /* \"#utility.yul\":214:243   */\n      swap1\n      pop\n        /* \"#utility.yul\":252:285   */\n      tag_131\n        /* \"#utility.yul\":279:284   */\n      dup2\n        /* \"#utility.yul\":252:285   */\n      tag_132\n      jump\t// in\n    tag_131:\n        /* \"#utility.yul\":204:291   */\n      swap3\n      swap2\n      pop\n      pop\n      jump\t// out\n        /* \"#utility.yul\":297:559   */\n    tag_48:\n        /* \"#utility.yul\":356:362   */\n      0x00\n        /* \"#utility.yul\":405:407   */\n      0x20\n        /* \"#utility.yul\":393:402   */\n      dup3\n        /* \"#utility.yul\":384:391   */\n      dup5\n        /* \"#utility.yul\":380:403   */\n      sub\n        /* \"#utility.yul\":376:408   */\n      slt\n        /* \"#utility.yul\":373:375   */\n      iszero\n      tag_134\n      jumpi\n        /* \"#utility.yul\":421:422   */\n      0x00\n        /* \"#utility.yul\":418:419   */\n      dup1\n        /* \"#utility.yul\":411:423   */\n      revert\n        /* \"#utility.yul\":373:375   */\n    tag_134:\n        /* \"#utility.yul\":464:465   */\n      0x00\n        /* \"#utility.yul\":489:542   */\n      tag_135\n        /* \"#utility.yul\":534:541   */\n      dup5\n        /* \"#utility.yul\":525:531   */\n      dup3\n        /* \"#utility.yul\":514:523   */\n      dup6\n        /* \"#utility.yul\":510:532   */\n      add\n        /* \"#utility.yul\":489:542   */\n      tag_125\n      jump\t// in\n    tag_135:\n        /* \"#utility.yul\":479:542   */\n      swap2\n      pop\n        /* \"#utility.yul\":435:552   */\n      pop\n        /* \"#utility.yul\":363:559   */\n      swap3\n      swap2\n      pop\n      pop\n      jump\t// out\n        /* \"#utility.yul\":565:972   */\n    tag_73:\n        /* \"#utility.yul\":633:639   */\n      0x00\n        /* \"#utility.yul\":641:647   */\n      dup1\n        /* \"#utility.yul\":690:692   */\n      0x40\n        /* \"#utility.yul\":678:687   */\n      dup4\n        /* \"#utility.yul\":669:676   */\n      dup6\n        /* \"#utility.yul\":665:688   */\n      sub\n        /* \"#utility.yul\":661:693   */\n      slt\n        /* \"#utility.yul\":658:660   */\n      iszero\n      tag_137\n      jumpi\n        /* \"#utility.yul\":706:707   */\n      0x00\n        /* \"#utility.yul\":703:704   */\n      dup1\n        /* \"#utility.yul\":696:708   */\n      revert\n        /* \"#utility.yul\":658:660   */\n    tag_137:\n        /* \"#utility.yul\":749:750   */\n      0x00\n        /* \"#utility.yul\":774:827   */\n      tag_138\n        /* \"#utility.yul\":819:826   */\n      dup6\n        /* \"#utility.yul\":810:816   */\n      dup3\n        /* \"#utility.yul\":799:808   */\n      dup7\n        /* \"#utility.yul\":795:817   */\n      add\n        /* \"#utility.yul\":774:827   */\n      tag_125\n      jump\t// in\n    tag_138:\n        /* \"#utility.yul\":764:827   */\n      swap3\n      pop\n        /* \"#utility.yul\":720:837   */\n      pop\n        /* \"#utility.yul\":876:878   */\n      0x20\n        /* \"#utility.yul\":902:955   */\n      tag_139\n        /* \"#utility.yul\":947:954   */\n      dup6\n        /* \"#utility.yul\":938:944   */\n      dup3\n        /* \"#utility.yul\":927:936   */\n      dup7\n        /* \"#utility.yul\":923:945   */\n      add\n        /* \"#utility.yul\":902:955   */\n      tag_125\n      jump\t// in\n    tag_139:\n        /* \"#utility.yul\":892:955   */\n      swap2\n      pop\n        /* \"#utility.yul\":847:965   */\n      pop\n        /* \"#utility.yul\":648:972   */\n      swap3\n      pop\n      swap3\n      swap1\n      pop\n      jump\t// out\n        /* \"#utility.yul\":978:1530   */\n    tag_36:\n        /* \"#utility.yul\":1055:1061   */\n      0x00\n        /* \"#utility.yul\":1063:1069   */\n      dup1\n        /* \"#utility.yul\":1071:1077   */\n      0x00\n        /* \"#utility.yul\":1120:1122   */\n      0x60\n        /* \"#utility.yul\":1108:1117   */\n      dup5\n        /* \"#utility.yul\":1099:1106   */\n      dup7\n        /* \"#utility.yul\":1095:1118   */\n      sub\n        /* \"#utility.yul\":1091:1123   */\n      slt\n        /* \"#utility.yul\":1088:1090   */\n      iszero\n      tag_141\n      jumpi\n        /* \"#utility.yul\":1136:1137   */\n      0x00\n        /* \"#utility.yul\":1133:1134   */\n      dup1\n        /* \"#utility.yul\":1126:1138   */\n      revert\n        /* \"#utility.yul\":1088:1090   */\n    tag_141:\n        /* \"#utility.yul\":1179:1180   */\n      0x00\n        /* \"#utility.yul\":1204:1257   */\n      tag_142\n        /* \"#utility.yul\":1249:1256   */\n      dup7\n        /* \"#utility.yul\":1240:1246   */\n      dup3\n        /* \"#utility.yul\":1229:1238   */\n      dup8\n        /* \"#utility.yul\":1225:1247   */\n      add\n        /* \"#utility.yul\":1204:1257   */\n      tag_125\n      jump\t// in\n    tag_142:\n        /* \"#utility.yul\":1194:1257   */\n      swap4\n      pop\n        /* \"#utility.yul\":1150:1267   */\n      pop\n        /* \"#utility.yul\":1306:1308   */\n      0x20\n        /* \"#utility.yul\":1332:1385   */\n      tag_143\n        /* \"#utility.yul\":1377:1384   */\n      dup7\n        /* \"#utility.yul\":1368:1374   */\n      dup3\n        /* \"#utility.yul\":1357:1366   */\n      dup8\n        /* \"#utility.yul\":1353:1375   */\n      add\n        /* \"#utility.yul\":1332:1385   */\n      tag_125\n      jump\t// in\n    tag_143:\n        /* \"#utility.yul\":1322:1385   */\n      swap3\n      pop\n        /* \"#utility.yul\":1277:1395   */\n      pop\n        /* \"#utility.yul\":1434:1436   */\n      0x40\n        /* \"#utility.yul\":1460:1513   */\n      tag_144\n        /* \"#utility.yul\":1505:1512   */\n      dup7\n        /* \"#utility.yul\":1496:1502   */\n      dup3\n        /* \"#utility.yul\":1485:1494   */\n      dup8\n        /* \"#utility.yul\":1481:1503   */\n      add\n        /* \"#utility.yul\":1460:1513   */\n      tag_129\n      jump\t// in\n    tag_144:\n        /* \"#utility.yul\":1450:1513   */\n      swap2\n      pop\n        /* \"#utility.yul\":1405:1523   */\n      pop\n        /* \"#utility.yul\":1078:1530   */\n      swap3\n      pop\n      swap3\n      pop\n      swap3\n      jump\t// out\n        /* \"#utility.yul\":1536:1943   */\n    tag_26:\n        /* \"#utility.yul\":1604:1610   */\n      0x00\n        /* \"#utility.yul\":1612:1618   */\n      dup1\n        /* \"#utility.yul\":1661:1663   */\n      0x40\n        /* \"#utility.yul\":1649:1658   */\n      dup4\n        /* \"#utility.yul\":1640:1647   */\n      dup6\n        /* \"#utility.yul\":1636:1659   */\n      sub\n        /* \"#utility.yul\":1632:1664   */\n      slt\n        /* \"#utility.yul\":1629:1631   */\n      iszero\n      tag_146\n      jumpi\n        /* \"#utility.yul\":1677:1678   */\n      0x00\n        /* \"#utility.yul\":1674:1675   */\n      dup1\n        /* \"#utility.yul\":1667:1679   */\n      revert\n        /* \"#utility.yul\":1629:1631   */\n    tag_146:\n        /* \"#utility.yul\":1720:1721   */\n      0x00\n        /* \"#utility.yul\":1745:1798   */\n      tag_147\n        /* \"#utility.yul\":1790:1797   */\n      dup6\n        /* \"#utility.yul\":1781:1787   */\n      dup3\n        /* \"#utility.yul\":1770:1779   */\n      dup7\n        /* \"#utility.yul\":1766:1788   */\n      add\n        /* \"#utility.yul\":1745:1798   */\n      tag_125\n      jump\t// in\n    tag_147:\n        /* \"#utility.yul\":1735:1798   */\n      swap3\n      pop\n        /* \"#utility.yul\":1691:1808   */\n      pop\n        /* \"#utility.yul\":1847:1849   */\n      0x20\n        /* \"#utility.yul\":1873:1926   */\n      tag_148\n        /* \"#utility.yul\":1918:1925   */\n      dup6\n        /* \"#utility.yul\":1909:1915   */\n      dup3\n        /* \"#utility.yul\":1898:1907   */\n      dup7\n        /* \"#utility.yul\":1894:1916   */\n      add\n        /* \"#utility.yul\":1873:1926   */\n      tag_129\n      jump\t// in\n    tag_148:\n        /* \"#utility.yul\":1863:1926   */\n      swap2\n      pop\n        /* \"#utility.yul\":1818:1936   */\n      pop\n        /* \"#utility.yul\":1619:1943   */\n      swap3\n      pop\n      swap3\n      swap1\n      pop\n      jump\t// out\n        /* \"#utility.yul\":1949:2356   */\n    tag_56:\n        /* \"#utility.yul\":2017:2023   */\n      0x00\n        /* \"#utility.yul\":2025:2031   */\n      dup1\n        /* \"#utility.yul\":2074:2076   */\n      0x40\n        /* \"#utility.yul\":2062:2071   */\n      dup4\n        /* \"#utility.yul\":2053:2060   */\n      dup6\n        /* \"#utility.yul\":2049:2072   */\n      sub\n        /* \"#utility.yul\":2045:2077   */\n      slt\n        /* \"#utility.yul\":2042:2044   */\n      iszero\n      tag_150\n      jumpi\n        /* \"#utility.yul\":2090:2091   */\n      0x00\n        /* \"#utility.yul\":2087:2088   */\n      dup1\n        /* \"#utility.yul\":2080:2092   */\n      revert\n        /* \"#utility.yul\":2042:2044   */\n    tag_150:\n        /* \"#utility.yul\":2133:2134   */\n      0x00\n        /* \"#utility.yul\":2158:2211   */\n      tag_151\n        /* \"#utility.yul\":2203:2210   */\n      dup6\n        /* \"#utility.yul\":2194:2200   */\n      dup3\n        /* \"#utility.yul\":2183:2192   */\n      dup7\n        /* \"#utility.yul\":2179:2201   */\n      add\n        /* \"#utility.yul\":2158:2211   */\n      tag_129\n      jump\t// in\n    tag_151:\n        /* \"#utility.yul\":2148:2211   */\n      swap3\n      pop\n        /* \"#utility.yul\":2104:2221   */\n      pop\n        /* \"#utility.yul\":2260:2262   */\n      0x20\n        /* \"#utility.yul\":2286:2339   */\n      tag_152\n        /* \"#utility.yul\":2331:2338   */\n      dup6\n        /* \"#utility.yul\":2322:2328   */\n      dup3\n        /* \"#utility.yul\":2311:2320   */\n      dup7\n        /* \"#utility.yul\":2307:2329   */\n      add\n        /* \"#utility.yul\":2286:2339   */\n      tag_129\n      jump\t// in\n    tag_152:\n        /* \"#utility.yul\":2276:2339   */\n      swap2\n      pop\n        /* \"#utility.yul\":2231:2349   */\n      pop\n        /* \"#utility.yul\":2032:2356   */\n      swap3\n      pop\n      swap3\n      swap1\n      pop\n      jump\t// out\n        /* \"#utility.yul\":2362:2471   */\n    tag_153:\n        /* \"#utility.yul\":2443:2464   */\n      tag_155\n        /* \"#utility.yul\":2458:2463   */\n      dup2\n        /* \"#utility.yul\":2443:2464   */\n      tag_156\n      jump\t// in\n    tag_155:\n        /* \"#utility.yul\":2438:2441   */\n      dup3\n        /* \"#utility.yul\":2431:2465   */\n      mstore\n        /* \"#utility.yul\":2421:2471   */\n      pop\n      pop\n      jump\t// out\n        /* \"#utility.yul\":2477:2841   */\n    tag_157:\n        /* \"#utility.yul\":2565:2568   */\n      0x00\n        /* \"#utility.yul\":2593:2632   */\n      tag_159\n        /* \"#utility.yul\":2626:2631   */\n      dup3\n        /* \"#utility.yul\":2593:2632   */\n      tag_160\n      jump\t// in\n    tag_159:\n        /* \"#utility.yul\":2648:2719   */\n      tag_161\n        /* \"#utility.yul\":2712:2718   */\n      dup2\n        /* \"#utility.yul\":2707:2710   */\n      dup6\n        /* \"#utility.yul\":2648:2719   */\n      tag_162\n      jump\t// in\n    tag_161:\n        /* \"#utility.yul\":2641:2719   */\n      swap4\n      pop\n        /* \"#utility.yul\":2728:2780   */\n      tag_163\n        /* \"#utility.yul\":2773:2779   */\n      dup2\n        /* \"#utility.yul\":2768:2771   */\n      dup6\n        /* \"#utility.yul\":2761:2765   */\n      0x20\n        /* \"#utility.yul\":2754:2759   */\n      dup7\n        /* \"#utility.yul\":2750:2766   */\n      add\n        /* \"#utility.yul\":2728:2780   */\n      tag_164\n      jump\t// in\n    tag_163:\n        /* \"#utility.yul\":2805:2834   */\n      tag_165\n        /* \"#utility.yul\":2827:2833   */\n      dup2\n        /* \"#utility.yul\":2805:2834   */\n      tag_166\n      jump\t// in\n    tag_165:\n        /* \"#utility.yul\":2800:2803   */\n      dup5\n        /* \"#utility.yul\":2796:2835   */\n      add\n        /* \"#utility.yul\":2789:2835   */\n      swap2\n      pop\n        /* \"#utility.yul\":2569:2841   */\n      pop\n      swap3\n      swap2\n      pop\n      pop\n      jump\t// out\n        /* \"#utility.yul\":2847:2965   */\n    tag_167:\n        /* \"#utility.yul\":2934:2958   */\n      tag_169\n        /* \"#utility.yul\":2952:2957   */\n      dup2\n        /* \"#utility.yul\":2934:2958   */\n      tag_170\n      jump\t// in\n    tag_169:\n        /* \"#utility.yul\":2929:2932   */\n      dup3\n        /* \"#utility.yul\":2922:2959   */\n      mstore\n        /* \"#utility.yul\":2912:2965   */\n      pop\n      pop\n      jump\t// out\n        /* \"#utility.yul\":2971:3083   */\n    tag_171:\n        /* \"#utility.yul\":3054:3076   */\n      tag_173\n        /* \"#utility.yul\":3070:3075   */\n      dup2\n        /* \"#utility.yul\":3054:3076   */\n      tag_174\n      jump\t// in\n    tag_173:\n        /* \"#utility.yul\":3049:3052   */\n      dup3\n        /* \"#utility.yul\":3042:3077   */\n      mstore\n        /* \"#utility.yul\":3032:3083   */\n      pop\n      pop\n      jump\t// out\n        /* \"#utility.yul\":3089:3299   */\n    tag_29:\n        /* \"#utility.yul\":3176:3180   */\n      0x00\n        /* \"#utility.yul\":3214:3216   */\n      0x20\n        /* \"#utility.yul\":3203:3212   */\n      dup3\n        /* \"#utility.yul\":3199:3217   */\n      add\n        /* \"#utility.yul\":3191:3217   */\n      swap1\n      pop\n        /* \"#utility.yul\":3227:3292   */\n      tag_176\n        /* \"#utility.yul\":3289:3290   */\n      0x00\n        /* \"#utility.yul\":3278:3287   */\n      dup4\n        /* \"#utility.yul\":3274:3291   */\n      add\n        /* \"#utility.yul\":3265:3271   */\n      dup5\n        /* \"#utility.yul\":3227:3292   */\n      tag_153\n      jump\t// in\n    tag_176:\n        /* \"#utility.yul\":3181:3299   */\n      swap3\n      swap2\n      pop\n      pop\n      jump\t// out\n        /* \"#utility.yul\":3305:3618   */\n    tag_23:\n        /* \"#utility.yul\":3418:3422   */\n      0x00\n        /* \"#utility.yul\":3456:3458   */\n      0x20\n        /* \"#utility.yul\":3445:3454   */\n      dup3\n        /* \"#utility.yul\":3441:3459   */\n      add\n        /* \"#utility.yul\":3433:3459   */\n      swap1\n      pop\n        /* \"#utility.yul\":3505:3514   */\n      dup2\n        /* \"#utility.yul\":3499:3503   */\n      dup2\n        /* \"#utility.yul\":3495:3515   */\n      sub\n        /* \"#utility.yul\":3491:3492   */\n      0x00\n        /* \"#utility.yul\":3480:3489   */\n      dup4\n        /* \"#utility.yul\":3476:3493   */\n      add\n        /* \"#utility.yul\":3469:3516   */\n      mstore\n        /* \"#utility.yul\":3533:3611   */\n      tag_178\n        /* \"#utility.yul\":3606:3610   */\n      dup2\n        /* \"#utility.yul\":3597:3603   */\n      dup5\n        /* \"#utility.yul\":3533:3611   */\n      tag_157\n      jump\t// in\n    tag_178:\n        /* \"#utility.yul\":3525:3611   */\n      swap1\n      pop\n        /* \"#utility.yul\":3423:3618   */\n      swap3\n      swap2\n      pop\n      pop\n      jump\t// out\n        /* \"#utility.yul\":3624:3846   */\n    tag_33:\n        /* \"#utility.yul\":3717:3721   */\n      0x00\n        /* \"#utility.yul\":3755:3757   */\n      0x20\n        /* \"#utility.yul\":3744:3753   */\n      dup3\n        /* \"#utility.yul\":3740:3758   */\n      add\n        /* \"#utility.yul\":3732:3758   */\n      swap1\n      pop\n        /* \"#utility.yul\":3768:3839   */\n      tag_180\n        /* \"#utility.yul\":3836:3837   */\n      0x00\n        /* \"#utility.yul\":3825:3834   */\n      dup4\n        /* \"#utility.yul\":3821:3838   */\n      add\n        /* \"#utility.yul\":3812:3818   */\n      dup5\n        /* \"#utility.yul\":3768:3839   */\n      tag_167\n      jump\t// in\n    tag_180:\n        /* \"#utility.yul\":3722:3846   */\n      swap3\n      swap2\n      pop\n      pop\n      jump\t// out\n        /* \"#utility.yul\":3852:4066   */\n    tag_42:\n        /* \"#utility.yul\":3941:3945   */\n      0x00\n        /* \"#utility.yul\":3979:3981   */\n      0x20\n        /* \"#utility.yul\":3968:3977   */\n      dup3\n        /* \"#utility.yul\":3964:3982   */\n      add\n        /* \"#utility.yul\":3956:3982   */\n      swap1\n      pop\n        /* \"#utility.yul\":3992:4059   */\n      tag_182\n        /* \"#utility.yul\":4056:4057   */\n      0x00\n        /* \"#utility.yul\":4045:4054   */\n      dup4\n        /* \"#utility.yul\":4041:4058   */\n      add\n        /* \"#utility.yul\":4032:4038   */\n      dup5\n        /* \"#utility.yul\":3992:4059   */\n      tag_171\n      jump\t// in\n    tag_182:\n        /* \"#utility.yul\":3946:4066   */\n      swap3\n      swap2\n      pop\n      pop\n      jump\t// out\n        /* \"#utility.yul\":4072:4171   */\n    tag_160:\n        /* \"#utility.yul\":4124:4130   */\n      0x00\n        /* \"#utility.yul\":4158:4163   */\n      dup2\n        /* \"#utility.yul\":4152:4164   */\n      mload\n        /* \"#utility.yul\":4142:4164   */\n      swap1\n      pop\n        /* \"#utility.yul\":4131:4171   */\n      swap2\n      swap1\n      pop\n      jump\t// out\n        /* \"#utility.yul\":4177:4346   */\n    tag_162:\n        /* \"#utility.yul\":4261:4272   */\n      0x00\n        /* \"#utility.yul\":4295:4301   */\n      dup3\n        /* \"#utility.yul\":4290:4293   */\n      dup3\n        /* \"#utility.yul\":4283:4302   */\n      mstore\n        /* \"#utility.yul\":4335:4339   */\n      0x20\n        /* \"#utility.yul\":4330:4333   */\n      dup3\n        /* \"#utility.yul\":4326:4340   */\n      add\n        /* \"#utility.yul\":4311:4340   */\n      swap1\n      pop\n        /* \"#utility.yul\":4273:4346   */\n      swap3\n      swap2\n      pop\n      pop\n      jump\t// out\n        /* \"#utility.yul\":4352:4657   */\n    tag_122:\n        /* \"#utility.yul\":4392:4395   */\n      0x00\n        /* \"#utility.yul\":4411:4431   */\n      tag_186\n        /* \"#utility.yul\":4429:4430   */\n      dup3\n        /* \"#utility.yul\":4411:4431   */\n      tag_170\n      jump\t// in\n    tag_186:\n        /* \"#utility.yul\":4406:4431   */\n      swap2\n      pop\n        /* \"#utility.yul\":4445:4465   */\n      tag_187\n        /* \"#utility.yul\":4463:4464   */\n      dup4\n        /* \"#utility.yul\":4445:4465   */\n      tag_170\n      jump\t// in\n    tag_187:\n        /* \"#utility.yul\":4440:4465   */\n      swap3\n      pop\n        /* \"#utility.yul\":4599:4600   */\n      dup3\n        /* \"#utility.yul\":4531:4597   */\n      0xffffffffffffffffffffffffffffffffffffffffffffffffffffffffffffffff\n        /* \"#utility.yul\":4527:4601   */\n      sub\n        /* \"#utility.yul\":4524:4525   */\n      dup3\n        /* \"#utility.yul\":4521:4602   */\n      gt\n        /* \"#utility.yul\":4518:4520   */\n      iszero\n      tag_188\n      jumpi\n        /* \"#utility.yul\":4605:4623   */\n      tag_189\n      tag_190\n      jump\t// in\n    tag_189:\n        /* \"#utility.yul\":4518:4520   */\n    tag_188:\n        /* \"#utility.yul\":4649:4650   */\n      dup3\n        /* \"#utility.yul\":4646:4647   */\n      dup3\n        /* \"#utility.yul\":4642:4651   */\n      add\n        /* \"#utility.yul\":4635:4651   */\n      swap1\n      pop\n        /* \"#utility.yul\":4396:4657   */\n      swap3\n      swap2\n      pop\n      pop\n      jump\t// out\n        /* \"#utility.yul\":4663:4848   */\n    tag_112:\n        /* \"#utility.yul\":4703:4704   */\n      0x00\n        /* \"#utility.yul\":4720:4740   */\n      tag_192\n        /* \"#utility.yul\":4738:4739   */\n      dup3\n        /* \"#utility.yul\":4720:4740   */\n      tag_170\n      jump\t// in\n    tag_192:\n        /* \"#utility.yul\":4715:4740   */\n      swap2\n      pop\n        /* \"#utility.yul\":4754:4774   */\n      tag_193\n        /* \"#utility.yul\":4772:4773   */\n      dup4\n        /* \"#utility.yul\":4754:4774   */\n      tag_170\n      jump\t// in\n    tag_193:\n        /* \"#utility.yul\":4749:4774   */\n      swap3\n      pop\n        /* \"#utility.yul\":4793:4794   */\n      dup3\n        /* \"#utility.yul\":4783:4785   */\n      tag_194\n      jumpi\n        /* \"#utility.yul\":4798:4816   */\n      tag_195\n      tag_196\n      jump\t// in\n    tag_195:\n        /* \"#utility.yul\":4783:4785   */\n    tag_194:\n        /* \"#utility.yul\":4840:4841   */\n      dup3\n        /* \"#utility.yul\":4837:4838   */\n      dup3\n        /* \"#utility.yul\":4833:4842   */\n      div\n        /* \"#utility.yul\":4828:4842   */\n      swap1\n      pop\n        /* \"#utility.yul\":4705:4848   */\n      swap3\n      swap2\n      pop\n      pop\n      jump\t// out\n        /* \"#utility.yul\":4854:5202   */\n    tag_115:\n        /* \"#utility.yul\":4894:4901   */\n      0x00\n        /* \"#utility.yul\":4917:4937   */\n      tag_198\n        /* \"#utility.yul\":4935:4936   */\n      dup3\n        /* \"#utility.yul\":4917:4937   */\n      tag_170\n      jump\t// in\n    tag_198:\n        /* \"#utility.yul\":4912:4937   */\n      swap2\n      pop\n        /* \"#utility.yul\":4951:4971   */\n      tag_199\n        /* \"#utility.yul\":4969:4970   */\n      dup4\n        /* \"#utility.yul\":4951:4971   */\n      tag_170\n      jump\t// in\n    tag_199:\n        /* \"#utility.yul\":4946:4971   */\n      swap3\n      pop\n        /* \"#utility.yul\":5139:5140   */\n      dup2\n        /* \"#utility.yul\":5071:5137   */\n      0xffffffffffffffffffffffffffffffffffffffffffffffffffffffffffffffff\n        /* \"#utility.yul\":5067:5141   */\n      div\n        /* \"#utility.yul\":5064:5065   */\n      dup4\n        /* \"#utility.yul\":5061:5142   */\n      gt\n        /* \"#utility.yul\":5056:5057   */\n      dup3\n        /* \"#utility.yul\":5049:5058   */\n      iszero\n        /* \"#utility.yul\":5042:5059   */\n      iszero\n        /* \"#utility.yul\":5038:5143   */\n      and\n        /* \"#utility.yul\":5035:5037   */\n      iszero\n      tag_200\n      jumpi\n        /* \"#utility.yul\":5146:5164   */\n      tag_201\n      tag_190\n      jump\t// in\n    tag_201:\n        /* \"#utility.yul\":5035:5037   */\n    tag_200:\n        /* \"#utility.yul\":5194:5195   */\n      dup3\n        /* \"#utility.yul\":5191:5192   */\n      dup3\n        /* \"#utility.yul\":5187:5196   */\n      mul\n        /* \"#utility.yul\":5176:5196   */\n      swap1\n      pop\n        /* \"#utility.yul\":4902:5202   */\n      swap3\n      swap2\n      pop\n      pop\n      jump\t// out\n        /* \"#utility.yul\":5208:5399   */\n    tag_90:\n        /* \"#utility.yul\":5248:5252   */\n      0x00\n        /* \"#utility.yul\":5268:5288   */\n      tag_203\n        /* \"#utility.yul\":5286:5287   */\n      dup3\n        /* \"#utility.yul\":5268:5288   */\n      tag_170\n      jump\t// in\n    tag_203:\n        /* \"#utility.yul\":5263:5288   */\n      swap2\n      pop\n        /* \"#utility.yul\":5302:5322   */\n      tag_204\n        /* \"#utility.yul\":5320:5321   */\n      dup4\n        /* \"#utility.yul\":5302:5322   */\n      tag_170\n      jump\t// in\n    tag_204:\n        /* \"#utility.yul\":5297:5322   */\n      swap3\n      pop\n        /* \"#utility.yul\":5341:5342   */\n      dup3\n        /* \"#utility.yul\":5338:5339   */\n      dup3\n        /* \"#utility.yul\":5335:5343   */\n      lt\n        /* \"#utility.yul\":5332:5334   */\n      iszero\n      tag_205\n      jumpi\n        /* \"#utility.yul\":5346:5364   */\n      tag_206\n      tag_190\n      jump\t// in\n    tag_206:\n        /* \"#utility.yul\":5332:5334   */\n    tag_205:\n        /* \"#utility.yul\":5391:5392   */\n      dup3\n        /* \"#utility.yul\":5388:5389   */\n      dup3\n        /* \"#utility.yul\":5384:5393   */\n      sub\n        /* \"#utility.yul\":5376:5393   */\n      swap1\n      pop\n        /* \"#utility.yul\":5253:5399   */\n      swap3\n      swap2\n      pop\n      pop\n      jump\t// out\n        /* \"#utility.yul\":5405:5501   */\n    tag_207:\n        /* \"#utility.yul\":5442:5449   */\n      0x00\n        /* \"#utility.yul\":5471:5495   */\n      tag_209\n        /* \"#utility.yul\":5489:5494   */\n      dup3\n        /* \"#utility.yul\":5471:5495   */\n      tag_210\n      jump\t// in\n    tag_209:\n        /* \"#utility.yul\":5460:5495   */\n      swap1\n      pop\n        /* \"#utility.yul\":5450:5501   */\n      swap2\n      swap1\n      pop\n      jump\t// out\n        /* \"#utility.yul\":5507:5597   */\n    tag_156:\n        /* \"#utility.yul\":5541:5548   */\n      0x00\n        /* \"#utility.yul\":5584:5589   */\n      dup2\n        /* \"#utility.yul\":5577:5590   */\n      iszero\n        /* \"#utility.yul\":5570:5591   */\n      iszero\n        /* \"#utility.yul\":5559:5591   */\n      swap1\n      pop\n        /* \"#utility.yul\":5549:5597   */\n      swap2\n      swap1\n      pop\n      jump\t// out\n        /* \"#utility.yul\":5603:5729   */\n    tag_210:\n        /* \"#utility.yul\":5640:5647   */\n      0x00\n        /* \"#utility.yul\":5680:5722   */\n      0xffffffffffffffffffffffffffffffffffffffff\n        /* \"#utility.yul\":5673:5678   */\n      dup3\n        /* \"#utility.yul\":5669:5723   */\n      and\n        /* \"#utility.yul\":5658:5723   */\n      swap1\n      pop\n        /* \"#utility.yul\":5648:5729   */\n      swap2\n      swap1\n      pop\n      jump\t// out\n        /* \"#utility.yul\":5735:5812   */\n    tag_170:\n        /* \"#utility.yul\":5772:5779   */\n      0x00\n        /* \"#utility.yul\":5801:5806   */\n      dup2\n        /* \"#utility.yul\":5790:5806   */\n      swap1\n      pop\n        /* \"#utility.yul\":5780:5812   */\n      swap2\n      swap1\n      pop\n      jump\t// out\n        /* \"#utility.yul\":5818:5904   */\n    tag_174:\n        /* \"#utility.yul\":5853:5860   */\n      0x00\n        /* \"#utility.yul\":5893:5897   */\n      0xff\n        /* \"#utility.yul\":5886:5891   */\n      dup3\n        /* \"#utility.yul\":5882:5898   */\n      and\n        /* \"#utility.yul\":5871:5898   */\n      swap1\n      pop\n        /* \"#utility.yul\":5861:5904   */\n      swap2\n      swap1\n      pop\n      jump\t// out\n        /* \"#utility.yul\":5910:6217   */\n    tag_164:\n        /* \"#utility.yul\":5978:5979   */\n      0x00\n        /* \"#utility.yul\":5988:6101   */\n    tag_216:\n        /* \"#utility.yul\":6002:6008   */\n      dup4\n        /* \"#utility.yul\":5999:6000   */\n      dup2\n        /* \"#utility.yul\":5996:6009   */\n      lt\n        /* \"#utility.yul\":5988:6101   */\n      iszero\n      tag_218\n      jumpi\n        /* \"#utility.yul\":6087:6088   */\n      dup1\n        /* \"#utility.yul\":6082:6085   */\n      dup3\n        /* \"#utility.yul\":6078:6089   */\n      add\n        /* \"#utility.yul\":6072:6090   */\n      mload\n        /* \"#utility.yul\":6068:6069   */\n      dup2\n        /* \"#utility.yul\":6063:6066   */\n      dup5\n        /* \"#utility.yul\":6059:6070   */\n      add\n        /* \"#utility.yul\":6052:6091   */\n      mstore\n        /* \"#utility.yul\":6024:6026   */\n      0x20\n        /* \"#utility.yul\":6021:6022   */\n      dup2\n        /* \"#utility.yul\":6017:6027   */\n      add\n        /* \"#utility.yul\":6012:6027   */\n      swap1\n      pop\n        /* \"#utility.yul\":5988:6101   */\n      jump(tag_216)\n    tag_218:\n        /* \"#utility.yul\":6119:6125   */\n      dup4\n        /* \"#utility.yul\":6116:6117   */\n      dup2\n        /* \"#utility.yul\":6113:6126   */\n      gt\n        /* \"#utility.yul\":6110:6112   */\n      iszero\n      tag_219\n      jumpi\n        /* \"#utility.yul\":6199:6200   */\n      0x00\n        /* \"#utility.yul\":6190:6196   */\n      dup5\n        /* \"#utility.yul\":6185:6188   */\n      dup5\n        /* \"#utility.yul\":6181:6197   */\n      add\n        /* \"#utility.yul\":6174:6201   */\n      mstore\n        /* \"#utility.yul\":6110:6112   */\n    tag_219:\n        /* \"#utility.yul\":5959:6217   */\n      pop\n      pop\n      pop\n      pop\n      jump\t// out\n        /* \"#utility.yul\":6223:6543   */\n    tag_81:\n        /* \"#utility.yul\":6267:6273   */\n      0x00\n        /* \"#utility.yul\":6304:6305   */\n      0x02\n        /* \"#utility.yul\":6298:6302   */\n      dup3\n        /* \"#utility.yul\":6294:6306   */\n      div\n        /* \"#utility.yul\":6284:6306   */\n      swap1\n      pop\n        /* \"#utility.yul\":6351:6352   */\n      0x01\n        /* \"#utility.yul\":6345:6349   */\n      dup3\n        /* \"#utility.yul\":6341:6353   */\n      and\n        /* \"#utility.yul\":6372:6390   */\n      dup1\n        /* \"#utility.yul\":6362:6364   */\n      tag_221\n      jumpi\n        /* \"#utility.yul\":6428:6432   */\n      0x7f\n        /* \"#utility.yul\":6420:6426   */\n      dup3\n        /* \"#utility.yul\":6416:6433   */\n      and\n        /* \"#utility.yul\":6406:6433   */\n      swap2\n      pop\n        /* \"#utility.yul\":6362:6364   */\n    tag_221:\n        /* \"#utility.yul\":6490:6492   */\n      0x20\n        /* \"#utility.yul\":6482:6488   */\n      dup3\n        /* \"#utility.yul\":6479:6493   */\n      lt\n        /* \"#utility.yul\":6459:6477   */\n      dup2\n        /* \"#utility.yul\":6456:6494   */\n      eq\n        /* \"#utility.yul\":6453:6455   */\n      iszero\n      tag_222\n      jumpi\n        /* \"#utility.yul\":6509:6527   */\n      tag_223\n      tag_224\n      jump\t// in\n    tag_223:\n        /* \"#utility.yul\":6453:6455   */\n    tag_222:\n        /* \"#utility.yul\":6274:6543   */\n      pop\n      swap2\n      swap1\n      pop\n      jump\t// out\n        /* \"#utility.yul\":6549:6729   */\n    tag_190:\n        /* \"#utility.yul\":6597:6674   */\n      0x4e487b7100000000000000000000000000000000000000000000000000000000\n        /* \"#utility.yul\":6594:6595   */\n      0x00\n        /* \"#utility.yul\":6587:6675   */\n      mstore\n        /* \"#utility.yul\":6694:6698   */\n      0x11\n        /* \"#utility.yul\":6691:6692   */\n      0x04\n        /* \"#utility.yul\":6684:6699   */\n      mstore\n        /* \"#utility.yul\":6718:6722   */\n      0x24\n        /* \"#utility.yul\":6715:6716   */\n      0x00\n        /* \"#utility.yul\":6708:6723   */\n      revert\n        /* \"#utility.yul\":6735:6915   */\n    tag_196:\n        /* \"#utility.yul\":6783:6860   */\n      0x4e487b7100000000000000000000000000000000000000000000000000000000\n        /* \"#utility.yul\":6780:6781   */\n      0x00\n        /* \"#utility.yul\":6773:6861   */\n      mstore\n        /* \"#utility.yul\":6880:6884   */\n      0x12\n        /* \"#utility.yul\":6877:6878   */\n      0x04\n        /* \"#utility.yul\":6870:6885   */\n      mstore\n        /* \"#utility.yul\":6904:6908   */\n      0x24\n        /* \"#utility.yul\":6901:6902   */\n      0x00\n        /* \"#utility.yul\":6894:6909   */\n      revert\n        /* \"#utility.yul\":6921:7101   */\n    tag_224:\n        /* \"#utility.yul\":6969:7046   */\n      0x4e487b7100000000000000000000000000000000000000000000000000000000\n        /* \"#utility.yul\":6966:6967   */\n      0x00\n        /* \"#utility.yul\":6959:7047   */\n      mstore\n        /* \"#utility.yul\":7066:7070   */\n      0x22\n        /* \"#utility.yul\":7063:7064   */\n      0x04\n        /* \"#utility.yul\":7056:7071   */\n      mstore\n        /* \"#utility.yul\":7090:7094   */\n      0x24\n        /* \"#utility.yul\":7087:7088   */\n      0x00\n        /* \"#utility.yul\":7080:7095   */\n      revert\n        /* \"#utility.yul\":7107:7209   */\n    tag_166:\n        /* \"#utility.yul\":7148:7154   */\n      0x00\n        /* \"#utility.yul\":7199:7201   */\n      0x1f\n        /* \"#utility.yul\":7195:7202   */\n      not\n        /* \"#utility.yul\":7190:7192   */\n      0x1f\n        /* \"#utility.yul\":7183:7188   */\n      dup4\n        /* \"#utility.yul\":7179:7193   */\n      add\n        /* \"#utility.yul\":7175:7203   */\n      and\n        /* \"#utility.yul\":7165:7203   */\n      swap1\n      pop\n        /* \"#utility.yul\":7155:7209   */\n      swap2\n      swap1\n      pop\n      jump\t// out\n        /* \"#utility.yul\":7215:7337   */\n    tag_128:\n        /* \"#utility.yul\":7288:7312   */\n      tag_230\n        /* \"#utility.yul\":7306:7311   */\n      dup2\n        /* \"#utility.yul\":7288:7312   */\n      tag_207\n      jump\t// in\n    tag_230:\n        /* \"#utility.yul\":7281:7286   */\n      dup2\n        /* \"#utility.yul\":7278:7313   */\n      eq\n        /* \"#utility.yul\":7268:7270   */\n      tag_231\n      jumpi\n        /* \"#utility.yul\":7327:7328   */\n      0x00\n        /* \"#utility.yul\":7324:7325   */\n      dup1\n        /* \"#utility.yul\":7317:7329   */\n      revert\n        /* \"#utility.yul\":7268:7270   */\n    tag_231:\n        /* \"#utility.yul\":7258:7337   */\n      pop\n      jump\t// out\n        /* \"#utility.yul\":7343:7465   */\n    tag_132:\n        /* \"#utility.yul\":7416:7440   */\n      tag_233\n        /* \"#utility.yul\":7434:7439   */\n      dup2\n        /* \"#utility.yul\":7416:7440   */\n      tag_170\n      jump\t// in\n    tag_233:\n        /* \"#utility.yul\":7409:7414   */\n      dup2\n        /* \"#utility.yul\":7406:7441   */\n      eq\n        /* \"#utility.yul\":7396:7398   */\n      tag_234\n      jumpi\n        /* \"#utility.yul\":7455:7456   */\n      0x00\n        /* \"#utility.yul\":7452:7453   */\n      dup1\n        /* \"#utility.yul\":7445:7457   */\n      revert\n        /* \"#utility.yul\":7396:7398   */\n    tag_234:\n        /* \"#utility.yul\":7386:7465   */\n      pop\n      jump\t// out\n\n    auxdata: 0xa2646970667358221220fd313c85059768d1a02c73a1af8d3a4d09d9a00fddc37def0ab9181d622eec7d64736f6c63430008040033\n}\n",
				"bytecode": {
					"linkReferences": {},
					"object": "60806040523480156200001157600080fd5b506040518060400160405280600b81526020017f4e6573746564546f6b656e000000000000000000000000000000000000000000815250600090805190602001906200005f92919062000192565b506040518060400160405280600381526020017f4e5354000000000000000000000000000000000000000000000000000000000081525060019080519060200190620000ad92919062000192565b506012600260006101000a81548160ff021916908360ff1602179055506a52b7d2dcc80cd2e4000000600381905550600354600460003373ffffffffffffffffffffffffffffffffffffffff1673ffffffffffffffffffffffffffffffffffffffff168152602001908152602001600020819055503373ffffffffffffffffffffffffffffffffffffffff16600073ffffffffffffffffffffffffffffffffffffffff167fddf252ad1be2c89b69c2b068fc378daa952ba7f163c4a11628f55a4df523b3ef60035460405162000184919062000253565b60405180910390a3620002df565b828054620001a0906200027a565b90600052602060002090601f016020900481019282620001c4576000855562000210565b82601f10620001df57805160ff191683800117855562000210565b8280016001018555821562000210579182015b828111156200020f578251825591602001919060010190620001f2565b5b5090506200021f919062000223565b5090565b5b808211156200023e57600081600090555060010162000224565b5090565b6200024d8162000270565b82525050565b60006020820190506200026a600083018462000242565b92915050565b6000819050919050565b600060028204905060018216806200029357607f821691505b60208210811415620002aa57620002a9620002b0565b5b50919050565b7f4e487b7100000000000000000000000000000000000000000000000000000000600052602260045260246000fd5b61105580620002ef6000396000f3fe608060405234801561001057600080fd5b50600436106100ea5760003560e01c806395d89b411161008c578063b5931f7c11610066578063b5931f7c14610275578063d05c78da146102a5578063dd62ed3e146102d5578063e6cb901314610305576100ea565b806395d89b41146101f7578063a293d1e814610215578063a9059cbb14610245576100ea565b806323b872dd116100c857806323b872dd1461015b578063313ce5671461018b5780633eaaf86b146101a957806370a08231146101c7576100ea565b806306fdde03146100ef578063095ea7b31461010d57806318160ddd1461013d575b600080fd5b6100f7610335565b6040516101049190610d10565b60405180910390f35b61012760048036038101906101229190610c17565b6103c3565b6040516101349190610cf5565b60405180910390f35b6101456104b5565b6040516101529190610d32565b60405180910390f35b61017560048036038101906101709190610bc8565b610509565b6040516101829190610cf5565b60405180910390f35b610193610799565b6040516101a09190610d4d565b60405180910390f35b6101b16107ac565b6040516101be9190610d32565b60405180910390f35b6101e160048036038101906101dc9190610b63565b6107b2565b6040516101ee9190610d32565b60405180910390f35b6101ff6107fb565b60405161020c9190610d10565b60405180910390f35b61022f600480360381019061022a9190610c53565b610889565b60405161023c9190610d32565b60405180910390f35b61025f600480360381019061025a9190610c17565b6108ac565b60405161026c9190610cf5565b60405180910390f35b61028f600480360381019061028a9190610c53565b610a35565b60405161029c9190610d32565b60405180910390f35b6102bf60048036038101906102ba9190610c53565b610a57565b6040516102cc9190610d32565b60405180910390f35b6102ef60048036038101906102ea9190610b8c565b610a8f565b6040516102fc9190610d32565b60405180910390f35b61031f600480360381019061031a9190610c53565b610b16565b60405161032c9190610d32565b60405180910390f35b6000805461034290610f21565b80601f016020809104026020016040519081016040528092919081815260200182805461036e90610f21565b80156103bb5780601f10610390576101008083540402835291602001916103bb565b820191906000526020600020905b81548152906001019060200180831161039e57829003601f168201915b505050505081565b600081600560003373ffffffffffffffffffffffffffffffffffffffff1673ffffffffffffffffffffffffffffffffffffffff16815260200190815260200160002060008573ffffffffffffffffffffffffffffffffffffffff1673ffffffffffffffffffffffffffffffffffffffff168152602001908152602001600020819055508273ffffffffffffffffffffffffffffffffffffffff163373ffffffffffffffffffffffffffffffffffffffff167f8c5be1e5ebec7d5bd14f71427d1e84f3dd0314c0f7b2291e5b200ac8c7c3b925846040516104a39190610d32565b60405180910390a36001905092915050565b6000600460008073ffffffffffffffffffffffffffffffffffffffff1673ffffffffffffffffffffffffffffffffffffffff168152602001908152602001600020546003546105049190610e65565b905090565b6000610554600460008673ffffffffffffffffffffffffffffffffffffffff1673ffffffffffffffffffffffffffffffffffffffff1681526020019081526020016000205483610889565b600460008673ffffffffffffffffffffffffffffffffffffffff1673ffffffffffffffffffffffffffffffffffffffff1681526020019081526020016000208190555061061d600560008673ffffffffffffffffffffffffffffffffffffffff1673ffffffffffffffffffffffffffffffffffffffff16815260200190815260200160002060003373ffffffffffffffffffffffffffffffffffffffff1673ffffffffffffffffffffffffffffffffffffffff1681526020019081526020016000205483610889565b600560008673ffffffffffffffffffffffffffffffffffffffff1673ffffffffffffffffffffffffffffffffffffffff16815260200190815260200160002060003373ffffffffffffffffffffffffffffffffffffffff1673ffffffffffffffffffffffffffffffffffffffff168152602001908152602001600020819055506106e6600460008573ffffffffffffffffffffffffffffffffffffffff1673ffffffffffffffffffffffffffffffffffffffff1681526020019081526020016000205483610b16565b600460008573ffffffffffffffffffffffffffffffffffffffff1673ffffffffffffffffffffffffffffffffffffffff168152602001908152602001600020819055508273ffffffffffffffffffffffffffffffffffffffff168473ffffffffffffffffffffffffffffffffffffffff167fddf252ad1be2c89b69c2b068fc378daa952ba7f163c4a11628f55a4df523b3ef846040516107869190610d32565b60405180910390a3600190509392505050565b600260009054906101000a900460ff1681565b60035481565b6000600460008373ffffffffffffffffffffffffffffffffffffffff1673ffffffffffffffffffffffffffffffffffffffff168152602001908152602001600020549050919050565b6001805461080890610f21565b80601f016020809104026020016040519081016040528092919081815260200182805461083490610f21565b80156108815780601f1061085657610100808354040283529160200191610881565b820191906000526020600020905b81548152906001019060200180831161086457829003601f168201915b505050505081565b60008282111561089857600080fd5b81836108a49190610e65565b905092915050565b60006108f7600460003373ffffffffffffffffffffffffffffffffffffffff1673ffffffffffffffffffffffffffffffffffffffff1681526020019081526020016000205483610889565b600460003373ffffffffffffffffffffffffffffffffffffffff1673ffffffffffffffffffffffffffffffffffffffff16815260200190815260200160002081905550610983600460008573ffffffffffffffffffffffffffffffffffffffff1673ffffffffffffffffffffffffffffffffffffffff1681526020019081526020016000205483610b16565b600460008573ffffffffffffffffffffffffffffffffffffffff1673ffffffffffffffffffffffffffffffffffffffff168152602001908152602001600020819055508273ffffffffffffffffffffffffffffffffffffffff163373ffffffffffffffffffffffffffffffffffffffff167fddf252ad1be2c89b69c2b068fc378daa952ba7f163c4a11628f55a4df523b3ef84604051610a239190610d32565b60405180910390a36001905092915050565b6000808211610a4357600080fd5b8183610a4f9190610dda565b905092915050565b60008183610a659190610e0b565b90506000831480610a805750818382610a7e9190610dda565b145b610a8957600080fd5b92915050565b6000600560008473ffffffffffffffffffffffffffffffffffffffff1673ffffffffffffffffffffffffffffffffffffffff16815260200190815260200160002060008373ffffffffffffffffffffffffffffffffffffffff1673ffffffffffffffffffffffffffffffffffffffff16815260200190815260200160002054905092915050565b60008183610b249190610d84565b905082811015610b3357600080fd5b92915050565b600081359050610b4881610ff1565b92915050565b600081359050610b5d81611008565b92915050565b600060208284031215610b7557600080fd5b6000610b8384828501610b39565b91505092915050565b60008060408385031215610b9f57600080fd5b6000610bad85828601610b39565b9250506020610bbe85828601610b39565b9150509250929050565b600080600060608486031215610bdd57600080fd5b6000610beb86828701610b39565b9350506020610bfc86828701610b39565b9250506040610c0d86828701610b4e565b9150509250925092565b60008060408385031215610c2a57600080fd5b6000610c3885828601610b39565b9250506020610c4985828601610b4e565b9150509250929050565b60008060408385031215610c6657600080fd5b6000610c7485828601610b4e565b9250506020610c8585828601610b4e565b9150509250929050565b610c9881610eab565b82525050565b6000610ca982610d68565b610cb38185610d73565b9350610cc3818560208601610eee565b610ccc81610fe0565b840191505092915050565b610ce081610ed7565b82525050565b610cef81610ee1565b82525050565b6000602082019050610d0a6000830184610c8f565b92915050565b60006020820190508181036000830152610d2a8184610c9e565b905092915050565b6000602082019050610d476000830184610cd7565b92915050565b6000602082019050610d626000830184610ce6565b92915050565b600081519050919050565b600082825260208201905092915050565b6000610d8f82610ed7565b9150610d9a83610ed7565b9250827fffffffffffffffffffffffffffffffffffffffffffffffffffffffffffffffff03821115610dcf57610dce610f53565b5b828201905092915050565b6000610de582610ed7565b9150610df083610ed7565b925082610e0057610dff610f82565b5b828204905092915050565b6000610e1682610ed7565b9150610e2183610ed7565b9250817fffffffffffffffffffffffffffffffffffffffffffffffffffffffffffffffff0483118215151615610e5a57610e59610f53565b5b828202905092915050565b6000610e7082610ed7565b9150610e7b83610ed7565b925082821015610e8e57610e8d610f53565b5b828203905092915050565b6000610ea482610eb7565b9050919050565b60008115159050919050565b600073ffffffffffffffffffffffffffffffffffffffff82169050919050565b6000819050919050565b600060ff82169050919050565b60005b83811015610f0c578082015181840152602081019050610ef1565b83811115610f1b576000848401525b50505050565b60006002820490506001821680610f3957607f821691505b60208210811415610f4d57610f4c610fb1565b5b50919050565b7f4e487b7100000000000000000000000000000000000000000000000000000000600052601160045260246000fd5b7f4e487b7100000000000000000000000000000000000000000000000000000000600052601260045260246000fd5b7f4e487b7100000000000000000000000000000000000000000000000000000000600052602260045260246000fd5b6000601f19601f8301169050919050565b610ffa81610e99565b811461100557600080fd5b50565b61101181610ed7565b811461101c57600080fd5b5056fea2646970667358221220fd313c85059768d1a02c73a1af8d3a4d09d9a00fddc37def0ab9181d622eec7d64736f6c63430008040033",
					"opcodes": "PUSH1 0x80 PUSH1 0x40 MSTORE CALLVALUE DUP1 ISZERO PUSH3 0x11 JUMPI PUSH1 0x0 DUP1 REVERT JUMPDEST POP PUSH1 0x40 MLOAD DUP1 PUSH1 0x40 ADD PUSH1 0x40 MSTORE DUP1 PUSH1 0xB DUP2 MSTORE PUSH1 0x20 ADD PUSH32 0x4E6573746564546F6B656E000000000000000000000000000000000000000000 DUP2 MSTORE POP PUSH1 0x0 SWAP1 DUP1 MLOAD SWAP1 PUSH1 0x20 ADD SWAP1 PUSH3 0x5F SWAP3 SWAP2 SWAP1 PUSH3 0x192 JUMP JUMPDEST POP PUSH1 0x40 MLOAD DUP1 PUSH1 0x40 ADD PUSH1 0x40 MSTORE DUP1 PUSH1 0x3 DUP2 MSTORE PUSH1 0x20 ADD PUSH32 0x4E53540000000000000000000000000000000000000000000000000000000000 DUP2 MSTORE POP PUSH1 0x1 SWAP1 DUP1 MLOAD SWAP1 PUSH1 0x20 ADD SWAP1 PUSH3 0xAD SWAP3 SWAP2 SWAP1 PUSH3 0x192 JUMP JUMPDEST POP PUSH1 0x12 PUSH1 0x2 PUSH1 0x0 PUSH2 0x100 EXP DUP2 SLOAD DUP2 PUSH1 0xFF MUL NOT AND SWAP1 DUP4 PUSH1 0xFF AND MUL OR SWAP1 SSTORE POP PUSH11 0x52B7D2DCC80CD2E4000000 PUSH1 0x3 DUP2 SWAP1 SSTORE POP PUSH1 0x3 SLOAD PUSH1 0x4 PUSH1 0x0 CALLER PUSH20 0xFFFFFFFFFFFFFFFFFFFFFFFFFFFFFFFFFFFFFFFF AND PUSH20 0xFFFFFFFFFFFFFFFFFFFFFFFFFFFFFFFFFFFFFFFF AND DUP2 MSTORE PUSH1 0x20 ADD SWAP1 DUP2 MSTORE PUSH1 0x20 ADD PUSH1 0x0 KECCAK256 DUP2 SWAP1 SSTORE POP CALLER PUSH20 0xFFFFFFFFFFFFFFFFFFFFFFFFFFFFFFFFFFFFFFFF AND PUSH1 0x0 PUSH20 0xFFFFFFFFFFFFFFFFFFFFFFFFFFFFFFFFFFFFFFFF AND PUSH32 0xDDF252AD1BE2C89B69C2B068FC378DAA952BA7F163C4A11628F55A4DF523B3EF PUSH1 0x3 SLOAD PUSH1 0x40 MLOAD PUSH3 0x184 SWAP2 SWAP1 PUSH3 0x253 JUMP JUMPDEST PUSH1 0x40 MLOAD DUP1 SWAP2 SUB SWAP1 LOG3 PUSH3 0x2DF JUMP JUMPDEST DUP3 DUP1 SLOAD PUSH3 0x1A0 SWAP1 PUSH3 0x27A JUMP JUMPDEST SWAP1 PUSH1 0x0 MSTORE PUSH1 0x20 PUSH1 0x0 KECCAK256 SWAP1 PUSH1 0x1F ADD PUSH1 0x20 SWAP1 DIV DUP2 ADD SWAP3 DUP3 PUSH3 0x1C4 JUMPI PUSH1 0x0 DUP6 SSTORE PUSH3 0x210 JUMP JUMPDEST DUP3 PUSH1 0x1F LT PUSH3 0x1DF JUMPI DUP1 MLOAD PUSH1 0xFF NOT AND DUP4 DUP1 ADD OR DUP6 SSTORE PUSH3 0x210 JUMP JUMPDEST DUP3 DUP1 ADD PUSH1 0x1 ADD DUP6 SSTORE DUP3 ISZERO PUSH3 0x210 JUMPI SWAP2 DUP3 ADD JUMPDEST DUP3 DUP2 GT ISZERO PUSH3 0x20F JUMPI DUP3 MLOAD DUP3 SSTORE SWAP2 PUSH1 0x20 ADD SWAP2 SWAP1 PUSH1 0x1 ADD SWAP1 PUSH3 0x1F2 JUMP JUMPDEST JUMPDEST POP SWAP1 POP PUSH3 0x21F SWAP2 SWAP1 PUSH3 0x223 JUMP JUMPDEST POP SWAP1 JUMP JUMPDEST JUMPDEST DUP1 DUP3 GT ISZERO PUSH3 0x23E JUMPI PUSH1 0x0 DUP2 PUSH1 0x0 SWAP1 SSTORE POP PUSH1 0x1 ADD PUSH3 0x224 JUMP JUMPDEST POP SWAP1 JUMP JUMPDEST PUSH3 0x24D DUP2 PUSH3 0x270 JUMP JUMPDEST DUP3 MSTORE POP POP JUMP JUMPDEST PUSH1 0x0 PUSH1 0x20 DUP3 ADD SWAP1 POP PUSH3 0x26A PUSH1 0x0 DUP4 ADD DUP5 PUSH3 0x242 JUMP JUMPDEST SWAP3 SWAP2 POP POP JUMP JUMPDEST PUSH1 0x0 DUP2 SWAP1 POP SWAP2 SWAP1 POP JUMP JUMPDEST PUSH1 0x0 PUSH1 0x2 DUP3 DIV SWAP1 POP PUSH1 0x1 DUP3 AND DUP1 PUSH3 0x293 JUMPI PUSH1 0x7F DUP3 AND SWAP2 POP JUMPDEST PUSH1 0x20 DUP3 LT DUP2 EQ ISZERO PUSH3 0x2AA JUMPI PUSH3 0x2A9 PUSH3 0x2B0 JUMP JUMPDEST JUMPDEST POP SWAP2 SWAP1 POP JUMP JUMPDEST PUSH32 0x4E487B7100000000000000000000000000000000000000000000000000000000 PUSH1 0x0 MSTORE PUSH1 0x22 PUSH1 0x4 MSTORE PUSH1 0x24 PUSH1 0x0 REVERT JUMPDEST PUSH2 0x1055 DUP1 PUSH3 0x2EF PUSH1 0x0 CODECOPY PUSH1 0x0 RETURN INVALID PUSH1 0x80 PUSH1 0x40 MSTORE CALLVALUE DUP1 ISZERO PUSH2 0x10 JUMPI PUSH1 0x0 DUP1 REVERT JUMPDEST POP PUSH1 0x4 CALLDATASIZE LT PUSH2 0xEA JUMPI PUSH1 0x0 CALLDATALOAD PUSH1 0xE0 SHR DUP1 PUSH4 0x95D89B41 GT PUSH2 0x8C JUMPI DUP1 PUSH4 0xB5931F7C GT PUSH2 0x66 JUMPI DUP1 PUSH4 0xB5931F7C EQ PUSH2 0x275 JUMPI DUP1 PUSH4 0xD05C78DA EQ PUSH2 0x2A5 JUMPI DUP1 PUSH4 0xDD62ED3E EQ PUSH2 0x2D5 JUMPI DUP1 PUSH4 0xE6CB9013 EQ PUSH2 0x305 JUMPI PUSH2 0xEA JUMP JUMPDEST DUP1 PUSH4 0x95D89B41 EQ PUSH2 0x1F7 JUMPI DUP1 PUSH4 0xA293D1E8 EQ PUSH2 0x215 JUMPI DUP1 PUSH4 0xA9059CBB EQ PUSH2 0x245 JUMPI PUSH2 0xEA JUMP JUMPDEST DUP1 PUSH4 0x23B872DD GT PUSH2 0xC8 JUMPI DUP1 PUSH4 0x23B872DD EQ PUSH2 0x15B JUMPI DUP1 PUSH4 0x313CE567 EQ PUSH2 0x18B JUMPI DUP1 PUSH4 0x3EAAF86B EQ PUSH2 0x1A9 JUMPI DUP1 PUSH4 0x70A08231 EQ PUSH2 0x1C7 JUMPI PUSH2 0xEA JUMP JUMPDEST DUP1 PUSH4 0x6FDDE03 EQ PUSH2 0xEF JUMPI DUP1 PUSH4 0x95EA7B3 EQ PUSH2 0x10D JUMPI DUP1 PUSH4 0x18160DDD EQ PUSH2 0x13D JUMPI JUMPDEST PUSH1 0x0 DUP1 REVERT JUMPDEST PUSH2 0xF7 PUSH2 0x335 JUMP JUMPDEST PUSH1 0x40 MLOAD PUSH2 0x104 SWAP2 SWAP1 PUSH2 0xD10 JUMP JUMPDEST PUSH1 0x40 MLOAD DUP1 SWAP2 SUB SWAP1 RETURN JUMPDEST PUSH2 0x127 PUSH1 0x4 DUP1 CALLDATASIZE SUB DUP2 ADD SWAP1 PUSH2 0x122 SWAP2 SWAP1 PUSH2 0xC17 JUMP JUMPDEST PUSH2 0x3C3 JUMP JUMPDEST PUSH1 0x40 MLOAD PUSH2 0x134 SWAP2 SWAP1 PUSH2 0xCF5 JUMP JUMPDEST PUSH1 0x40 MLOAD DUP1 SWAP2 SUB SWAP1 RETURN JUMPDEST PUSH2 0x145 PUSH2 0x4B5 JUMP JUMPDEST PUSH1 0x40 MLOAD PUSH2 0x152 SWAP2 SWAP1 PUSH2 0xD32 JUMP JUMPDEST PUSH1 0x40 MLOAD DUP1 SWAP2 SUB SWAP1 RETURN JUMPDEST PUSH2 0x175 PUSH1 0x4 DUP1 CALLDATASIZE SUB DUP2 ADD SWAP1 PUSH2 0x170 SWAP2 SWAP1 PUSH2 0xBC8 JUMP JUMPDEST PUSH2 0x509 JUMP JUMPDEST PUSH1 0x40 MLOAD PUSH2 0x182 SWAP2 SWAP1 PUSH2 0xCF5 JUMP JUMPDEST PUSH1 0x40 MLOAD DUP1 SWAP2 SUB SWAP1 RETURN JUMPDEST PUSH2 0x193 PUSH2 0x799 JUMP JUMPDEST PUSH1 0x40 MLOAD PUSH2 0x1A0 SWAP2 SWAP1 PUSH2 0xD4D JUMP JUMPDEST PUSH1 0x40 MLOAD DUP1 SWAP2 SUB SWAP1 RETURN JUMPDEST PUSH2 0x1B1 PUSH2 0x7AC JUMP JUMPDEST PUSH1 0x40 MLOAD PUSH2 0x1BE SWAP2 SWAP1 PUSH2 0xD32 JUMP JUMPDEST PUSH1 0x40 MLOAD DUP1 SWAP2 SUB SWAP1 RETURN JUMPDEST PUSH2 0x1E1 PUSH1 0x4 DUP1 CALLDATASIZE SUB DUP2 ADD SWAP1 PUSH2 0x1DC SWAP2 SWAP1 PUSH2 0xB63 JUMP JUMPDEST PUSH2 0x7B2 JUMP JUMPDEST PUSH1 0x40 MLOAD PUSH2 0x1EE SWAP2 SWAP1 PUSH2 0xD32 JUMP JUMPDEST PUSH1 0x40 MLOAD DUP1 SWAP2 SUB SWAP1 RETURN JUMPDEST PUSH2 0x1FF PUSH2 0x7FB JUMP JUMPDEST PUSH1 0x40 MLOAD PUSH2 0x20C SWAP2 SWAP1 PUSH2 0xD10 JUMP JUMPDEST PUSH1 0x40 MLOAD DUP1 SWAP2 SUB SWAP1 RETURN JUMPDEST PUSH2 0x22F PUSH1 0x4 DUP1 CALLDATASIZE SUB DUP2 ADD SWAP1 PUSH2 0x22A SWAP2 SWAP1 PUSH2 0xC53 JUMP JUMPDEST PUSH2 0x889 JUMP JUMPDEST PUSH1 0x40 MLOAD PUSH2 0x23C SWAP2 SWAP1 PUSH2 0xD32 JUMP JUMPDEST PUSH1 0x40 MLOAD DUP1 SWAP2 SUB SWAP1 RETURN JUMPDEST PUSH2 0x25F PUSH1 0x4 DUP1 CALLDATASIZE SUB DUP2 ADD SWAP1 PUSH2 0x25A SWAP2 SWAP1 PUSH2 0xC17 JUMP JUMPDEST PUSH2 0x8AC JUMP JUMPDEST PUSH1 0x40 MLOAD PUSH2 0x26C SWAP2 SWAP1 PUSH2 0xCF5 JUMP JUMPDEST PUSH1 0x40 MLOAD DUP1 SWAP2 SUB SWAP1 RETURN JUMPDEST PUSH2 0x28F PUSH1 0x4 DUP1 CALLDATASIZE SUB DUP2 ADD SWAP1 PUSH2 0x28A SWAP2 SWAP1 PUSH2 0xC53 JUMP JUMPDEST PUSH2 0xA35 JUMP JUMPDEST PUSH1 0x40 MLOAD PUSH2 0x29C SWAP2 SWAP1 PUSH2 0xD32 JUMP JUMPDEST PUSH1 0x40 MLOAD DUP1 SWAP2 SUB SWAP1 RETURN JUMPDEST PUSH2 0x2BF PUSH1 0x4 DUP1 CALLDATASIZE SUB DUP2 ADD SWAP1 PUSH2 0x2BA SWAP2 SWAP1 PUSH2 0xC53 JUMP JUMPDEST PUSH2 0xA57 JUMP JUMPDEST PUSH1 0x40 MLOAD PUSH2 0x2CC SWAP2 SWAP1 PUSH2 0xD32 JUMP JUMPDEST PUSH1 0x40 MLOAD DUP1 SWAP2 SUB SWAP1 RETURN JUMPDEST PUSH2 0x2EF PUSH1 0x4 DUP1 CALLDATASIZE SUB DUP2 ADD SWAP1 PUSH2 0x2EA SWAP2 SWAP1 PUSH2 0xB8C JUMP JUMPDEST PUSH2 0xA8F JUMP JUMPDEST PUSH1 0x40 MLOAD PUSH2 0x2FC SWAP2 SWAP1 PUSH2 0xD32 JUMP JUMPDEST PUSH1 0x40 MLOAD DUP1 SWAP2 SUB SWAP1 RETURN JUMPDEST PUSH2 0x31F PUSH1 0x4 DUP1 CALLDATASIZE SUB DUP2 ADD SWAP1 PUSH2 0x31A SWAP2 SWAP1 PUSH2 0xC53 JUMP JUMPDEST PUSH2 0xB16 JUMP JUMPDEST PUSH1 0x40 MLOAD PUSH2 0x32C SWAP2 SWAP1 PUSH2 0xD32 JUMP JUMPDEST PUSH1 0x40 MLOAD DUP1 SWAP2 SUB SWAP1 RETURN JUMPDEST PUSH1 0x0 DUP1 SLOAD PUSH2 0x342 SWAP1 PUSH2 0xF21 JUMP JUMPDEST DUP1 PUSH1 0x1F ADD PUSH1 0x20 DUP1 SWAP2 DIV MUL PUSH1 0x20 ADD PUSH1 0x40 MLOAD SWAP1 DUP2 ADD PUSH1 0x40 MSTORE DUP1 SWAP3 SWAP2 SWAP1 DUP2 DUP2 MSTORE PUSH1 0x20 ADD DUP3 DUP1 SLOAD PUSH2 0x36E SWAP1 PUSH2 0xF21 JUMP JUMPDEST DUP1 ISZERO PUSH2 0x3BB JUMPI DUP1 PUSH1 0x1F LT PUSH2 0x390 JUMPI PUSH2 0x100 DUP1 DUP4 SLOAD DIV MUL DUP4 MSTORE SWAP2 PUSH1 0x20 ADD SWAP2 PUSH2 0x3BB JUMP JUMPDEST DUP3 ADD SWAP2 SWAP1 PUSH1 0x0 MSTORE PUSH1 0x20 PUSH1 0x0 KECCAK256 SWAP1 JUMPDEST DUP2 SLOAD DUP2 MSTORE SWAP1 PUSH1 0x1 ADD SWAP1 PUSH1 0x20 ADD DUP1 DUP4 GT PUSH2 0x39E JUMPI DUP3 SWAP1 SUB PUSH1 0x1F AND DUP3 ADD SWAP2 JUMPDEST POP POP POP POP POP DUP2 JUMP JUMPDEST PUSH1 0x0 DUP2 PUSH1 0x5 PUSH1 0x0 CALLER PUSH20 0xFFFFFFFFFFFFFFFFFFFFFFFFFFFFFFFFFFFFFFFF AND PUSH20 0xFFFFFFFFFFFFFFFFFFFFFFFFFFFFFFFFFFFFFFFF AND DUP2 MSTORE PUSH1 0x20 ADD SWAP1 DUP2 MSTORE PUSH1 0x20 ADD PUSH1 0x0 KECCAK256 PUSH1 0x0 DUP6 PUSH20 0xFFFFFFFFFFFFFFFFFFFFFFFFFFFFFFFFFFFFFFFF AND PUSH20 0xFFFFFFFFFFFFFFFFFFFFFFFFFFFFFFFFFFFFFFFF AND DUP2 MSTORE PUSH1 0x20 ADD SWAP1 DUP2 MSTORE PUSH1 0x20 ADD PUSH1 0x0 KECCAK256 DUP2 SWAP1 SSTORE POP DUP3 PUSH20 0xFFFFFFFFFFFFFFFFFFFFFFFFFFFFFFFFFFFFFFFF AND CALLER PUSH20 0xFFFFFFFFFFFFFFFFFFFFFFFFFFFFFFFFFFFFFFFF AND PUSH32 0x8C5BE1E5EBEC7D5BD14F71427D1E84F3DD0314C0F7B2291E5B200AC8C7C3B925 DUP5 PUSH1 0x40 MLOAD PUSH2 0x4A3 SWAP2 SWAP1 PUSH2 0xD32 JUMP JUMPDEST PUSH1 0x40 MLOAD DUP1 SWAP2 SUB SWAP1 LOG3 PUSH1 0x1 SWAP1 POP SWAP3 SWAP2 POP POP JUMP JUMPDEST PUSH1 0x0 PUSH1 0x4 PUSH1 0x0 DUP1 PUSH20 0xFFFFFFFFFFFFFFFFFFFFFFFFFFFFFFFFFFFFFFFF AND PUSH20 0xFFFFFFFFFFFFFFFFFFFFFFFFFFFFFFFFFFFFFFFF AND DUP2 MSTORE PUSH1 0x20 ADD SWAP1 DUP2 MSTORE PUSH1 0x20 ADD PUSH1 0x0 KECCAK256 SLOAD PUSH1 0x3 SLOAD PUSH2 0x504 SWAP2 SWAP1 PUSH2 0xE65 JUMP JUMPDEST SWAP1 POP SWAP1 JUMP JUMPDEST PUSH1 0x0 PUSH2 0x554 PUSH1 0x4 PUSH1 0x0 DUP7 PUSH20 0xFFFFFFFFFFFFFFFFFFFFFFFFFFFFFFFFFFFFFFFF AND PUSH20 0xFFFFFFFFFFFFFFFFFFFFFFFFFFFFFFFFFFFFFFFF AND DUP2 MSTORE PUSH1 0x20 ADD SWAP1 DUP2 MSTORE PUSH1 0x20 ADD PUSH1 0x0 KECCAK256 SLOAD DUP4 PUSH2 0x889 JUMP JUMPDEST PUSH1 0x4 PUSH1 0x0 DUP7 PUSH20 0xFFFFFFFFFFFFFFFFFFFFFFFFFFFFFFFFFFFFFFFF AND PUSH20 0xFFFFFFFFFFFFFFFFFFFFFFFFFFFFFFFFFFFFFFFF AND DUP2 MSTORE PUSH1 0x20 ADD SWAP1 DUP2 MSTORE PUSH1 0x20 ADD PUSH1 0x0 KECCAK256 DUP2 SWAP1 SSTORE POP PUSH2 0x61D PUSH1 0x5 PUSH1 0x0 DUP7 PUSH20 0xFFFFFFFFFFFFFFFFFFFFFFFFFFFFFFFFFFFFFFFF AND PUSH20 0xFFFFFFFFFFFFFFFFFFFFFFFFFFFFFFFFFFFFFFFF AND DUP2 MSTORE PUSH1 0x20 ADD SWAP1 DUP2 MSTORE PUSH1 0x20 ADD PUSH1 0x0 KECCAK256 PUSH1 0x0 CALLER PUSH20 0xFFFFFFFFFFFFFFFFFFFFFFFFFFFFFFFFFFFFFFFF AND PUSH20 0xFFFFFFFFFFFFFFFFFFFFFFFFFFFFFFFFFFFFFFFF AND DUP2 MSTORE PUSH1 0x20 ADD SWAP1 DUP2 MSTORE PUSH1 0x20 ADD PUSH1 0x0 KECCAK256 SLOAD DUP4 PUSH2 0x889 JUMP JUMPDEST PUSH1 0x5 PUSH1 0x0 DUP7 PUSH20 0xFFFFFFFFFFFFFFFFFFFFFFFFFFFFFFFFFFFFFFFF AND PUSH20 0xFFFFFFFFFFFFFFFFFFFFFFFFFFFFFFFFFFFFFFFF AND DUP2 MSTORE PUSH1 0x20 ADD SWAP1 DUP2 MSTORE PUSH1 0x20 ADD PUSH1 0x0 KECCAK256 PUSH1 0x0 CALLER PUSH20 0xFFFFFFFFFFFFFFFFFFFFFFFFFFFFFFFFFFFFFFFF AND PUSH20 0xFFFFFFFFFFFFFFFFFFFFFFFFFFFFFFFFFFFFFFFF AND DUP2 MSTORE PUSH1 0x20 ADD SWAP1 DUP2 MSTORE PUSH1 0x20 ADD PUSH1 0x0 KECCAK256 DUP2 SWAP1 SSTORE POP PUSH2 0x6E6 PUSH1 0x4 PUSH1 0x0 DUP6 PUSH20 0xFFFFFFFFFFFFFFFFFFFFFFFFFFFFFFFFFFFFFFFF AND PUSH20 0xFFFFFFFFFFFFFFFFFFFFFFFFFFFFFFFFFFFFFFFF AND DUP2 MSTORE PUSH1 0x20 ADD SWAP1 DUP2 MSTORE PUSH1 0x20 ADD PUSH1 0x0 KECCAK256 SLOAD DUP4 PUSH2 0xB16 JUMP JUMPDEST PUSH1 0x4 PUSH1 0x0 DUP6 PUSH20 0xFFFFFFFFFFFFFFFFFFFFFFFFFFFFFFFFFFFFFFFF AND PUSH20 0xFFFFFFFFFFFFFFFFFFFFFFFFFFFFFFFFFFFFFFFF AND DUP2 MSTORE PUSH1 0x20 ADD SWAP1 DUP2 MSTORE PUSH1 0x20 ADD PUSH1 0x0 KECCAK256 DUP2 SWAP1 SSTORE POP DUP3 PUSH20 0xFFFFFFFFFFFFFFFFFFFFFFFFFFFFFFFFFFFFFFFF AND DUP5 PUSH20 0xFFFFFFFFFFFFFFFFFFFFFFFFFFFFFFFFFFFFFFFF AND PUSH32 0xDDF252AD1BE2C89B69C2B068FC378DAA952BA7F163C4A11628F55A4DF523B3EF DUP5 PUSH1 0x40 MLOAD PUSH2 0x786 SWAP2 SWAP1 PUSH2 0xD32 JUMP JUMPDEST PUSH1 0x40 MLOAD DUP1 SWAP2 SUB SWAP1 LOG3 PUSH1 0x1 SWAP1 POP SWAP4 SWAP3 POP POP POP JUMP JUMPDEST PUSH1 0x2 PUSH1 0x0 SWAP1 SLOAD SWAP1 PUSH2 0x100 EXP SWAP1 DIV PUSH1 0xFF AND DUP2 JUMP JUMPDEST PUSH1 0x3 SLOAD DUP2 JUMP JUMPDEST PUSH1 0x0 PUSH1 0x4 PUSH1 0x0 DUP4 PUSH20 0xFFFFFFFFFFFFFFFFFFFFFFFFFFFFFFFFFFFFFFFF AND PUSH20 0xFFFFFFFFFFFFFFFFFFFFFFFFFFFFFFFFFFFFFFFF AND DUP2 MSTORE PUSH1 0x20 ADD SWAP1 DUP2 MSTORE PUSH1 0x20 ADD PUSH1 0x0 KECCAK256 SLOAD SWAP1 POP SWAP2 SWAP1 POP JUMP JUMPDEST PUSH1 0x1 DUP1 SLOAD PUSH2 0x808 SWAP1 PUSH2 0xF21 JUMP JUMPDEST DUP1 PUSH1 0x1F ADD PUSH1 0x20 DUP1 SWAP2 DIV MUL PUSH1 0x20 ADD PUSH1 0x40 MLOAD SWAP1 DUP2 ADD PUSH1 0x40 MSTORE DUP1 SWAP3 SWAP2 SWAP1 DUP2 DUP2 MSTORE PUSH1 0x20 ADD DUP3 DUP1 SLOAD PUSH2 0x834 SWAP1 PUSH2 0xF21 JUMP JUMPDEST DUP1 ISZERO PUSH2 0x881 JUMPI DUP1 PUSH1 0x1F LT PUSH2 0x856 JUMPI PUSH2 0x100 DUP1 DUP4 SLOAD DIV MUL DUP4 MSTORE SWAP2 PUSH1 0x20 ADD SWAP2 PUSH2 0x881 JUMP JUMPDEST DUP3 ADD SWAP2 SWAP1 PUSH1 0x0 MSTORE PUSH1 0x20 PUSH1 0x0 KECCAK256 SWAP1 JUMPDEST DUP2 SLOAD DUP2 MSTORE SWAP1 PUSH1 0x1 ADD SWAP1 PUSH1 0x20 ADD DUP1 DUP4 GT PUSH2 0x864 JUMPI DUP3 SWAP1 SUB PUSH1 0x1F AND DUP3 ADD SWAP2 JUMPDEST POP POP POP POP POP DUP2 JUMP JUMPDEST PUSH1 0x0 DUP3 DUP3 GT ISZERO PUSH2 0x898 JUMPI PUSH1 0x0 DUP1 REVERT JUMPDEST DUP2 DUP4 PUSH2 0x8A4 SWAP2 SWAP1 PUSH2 0xE65 JUMP JUMPDEST SWAP1 POP SWAP3 SWAP2 POP POP JUMP JUMPDEST PUSH1 0x0 PUSH2 0x8F7 PUSH1 0x4 PUSH1 0x0 CALLER PUSH20 0xFFFFFFFFFFFFFFFFFFFFFFFFFFFFFFFFFFFFFFFF AND PUSH20 0xFFFFFFFFFFFFFFFFFFFFFFFFFFFFFFFFFFFFFFFF AND DUP2 MSTORE PUSH1 0x20 ADD SWAP1 DUP2 MSTORE PUSH1 0x20 ADD PUSH1 0x0 KECCAK256 SLOAD DUP4 PUSH2 0x889 JUMP JUMPDEST PUSH1 0x4 PUSH1 0x0 CALLER PUSH20 0xFFFFFFFFFFFFFFFFFFFFFFFFFFFFFFFFFFFFFFFF AND PUSH20 0xFFFFFFFFFFFFFFFFFFFFFFFFFFFFFFFFFFFFFFFF AND DUP2 MSTORE PUSH1 0x20 ADD SWAP1 DUP2 MSTORE PUSH1 0x20 ADD PUSH1 0x0 KECCAK256 DUP2 SWAP1 SSTORE POP PUSH2 0x983 PUSH1 0x4 PUSH1 0x0 DUP6 PUSH20 0xFFFFFFFFFFFFFFFFFFFFFFFFFFFFFFFFFFFFFFFF AND PUSH20 0xFFFFFFFFFFFFFFFFFFFFFFFFFFFFFFFFFFFFFFFF AND DUP2 MSTORE PUSH1 0x20 ADD SWAP1 DUP2 MSTORE PUSH1 0x20 ADD PUSH1 0x0 KECCAK256 SLOAD DUP4 PUSH2 0xB16 JUMP JUMPDEST PUSH1 0x4 PUSH1 0x0 DUP6 PUSH20 0xFFFFFFFFFFFFFFFFFFFFFFFFFFFFFFFFFFFFFFFF AND PUSH20 0xFFFFFFFFFFFFFFFFFFFFFFFFFFFFFFFFFFFFFFFF AND DUP2 MSTORE PUSH1 0x20 ADD SWAP1 DUP2 MSTORE PUSH1 0x20 ADD PUSH1 0x0 KECCAK256 DUP2 SWAP1 SSTORE POP DUP3 PUSH20 0xFFFFFFFFFFFFFFFFFFFFFFFFFFFFFFFFFFFFFFFF AND CALLER PUSH20 0xFFFFFFFFFFFFFFFFFFFFFFFFFFFFFFFFFFFFFFFF AND PUSH32 0xDDF252AD1BE2C89B69C2B068FC378DAA952BA7F163C4A11628F55A4DF523B3EF DUP5 PUSH1 0x40 MLOAD PUSH2 0xA23 SWAP2 SWAP1 PUSH2 0xD32 JUMP JUMPDEST PUSH1 0x40 MLOAD DUP1 SWAP2 SUB SWAP1 LOG3 PUSH1 0x1 SWAP1 POP SWAP3 SWAP2 POP POP JUMP JUMPDEST PUSH1 0x0 DUP1 DUP3 GT PUSH2 0xA43 JUMPI PUSH1 0x0 DUP1 REVERT JUMPDEST DUP2 DUP4 PUSH2 0xA4F SWAP2 SWAP1 PUSH2 0xDDA JUMP JUMPDEST SWAP1 POP SWAP3 SWAP2 POP POP JUMP JUMPDEST PUSH1 0x0 DUP2 DUP4 PUSH2 0xA65 SWAP2 SWAP1 PUSH2 0xE0B JUMP JUMPDEST SWAP1 POP PUSH1 0x0 DUP4 EQ DUP1 PUSH2 0xA80 JUMPI POP DUP2 DUP4 DUP3 PUSH2 0xA7E SWAP2 SWAP1 PUSH2 0xDDA JUMP JUMPDEST EQ JUMPDEST PUSH2 0xA89 JUMPI PUSH1 0x0 DUP1 REVERT JUMPDEST SWAP3 SWAP2 POP POP JUMP JUMPDEST PUSH1 0x0 PUSH1 0x5 PUSH1 0x0 DUP5 PUSH20 0xFFFFFFFFFFFFFFFFFFFFFFFFFFFFFFFFFFFFFFFF AND PUSH20 0xFFFFFFFFFFFFFFFFFFFFFFFFFFFFFFFFFFFFFFFF AND DUP2 MSTORE PUSH1 0x20 ADD SWAP1 DUP2 MSTORE PUSH1 0x20 ADD PUSH1 0x0 KECCAK256 PUSH1 0x0 DUP4 PUSH20 0xFFFFFFFFFFFFFFFFFFFFFFFFFFFFFFFFFFFFFFFF AND PUSH20 0xFFFFFFFFFFFFFFFFFFFFFFFFFFFFFFFFFFFFFFFF AND DUP2 MSTORE PUSH1 0x20 ADD SWAP1 DUP2 MSTORE PUSH1 0x20 ADD PUSH1 0x0 KECCAK256 SLOAD SWAP1 POP SWAP3 SWAP2 POP POP JUMP JUMPDEST PUSH1 0x0 DUP2 DUP4 PUSH2 0xB24 SWAP2 SWAP1 PUSH2 0xD84 JUMP JUMPDEST SWAP1 POP DUP3 DUP2 LT ISZERO PUSH2 0xB33 JUMPI PUSH1 0x0 DUP1 REVERT JUMPDEST SWAP3 SWAP2 POP POP JUMP JUMPDEST PUSH1 0x0 DUP2 CALLDATALOAD SWAP1 POP PUSH2 0xB48 DUP2 PUSH2 0xFF1 JUMP JUMPDEST SWAP3 SWAP2 POP POP JUMP JUMPDEST PUSH1 0x0 DUP2 CALLDATALOAD SWAP1 POP PUSH2 0xB5D DUP2 PUSH2 0x1008 JUMP JUMPDEST SWAP3 SWAP2 POP POP JUMP JUMPDEST PUSH1 0x0 PUSH1 0x20 DUP3 DUP5 SUB SLT ISZERO PUSH2 0xB75 JUMPI PUSH1 0x0 DUP1 REVERT JUMPDEST PUSH1 0x0 PUSH2 0xB83 DUP5 DUP3 DUP6 ADD PUSH2 0xB39 JUMP JUMPDEST SWAP2 POP POP SWAP3 SWAP2 POP POP JUMP JUMPDEST PUSH1 0x0 DUP1 PUSH1 0x40 DUP4 DUP6 SUB SLT ISZERO PUSH2 0xB9F JUMPI PUSH1 0x0 DUP1 REVERT JUMPDEST PUSH1 0x0 PUSH2 0xBAD DUP6 DUP3 DUP7 ADD PUSH2 0xB39 JUMP JUMPDEST SWAP3 POP POP PUSH1 0x20 PUSH2 0xBBE DUP6 DUP3 DUP7 ADD PUSH2 0xB39 JUMP JUMPDEST SWAP2 POP POP SWAP3 POP SWAP3 SWAP1 POP JUMP JUMPDEST PUSH1 0x0 DUP1 PUSH1 0x0 PUSH1 0x60 DUP5 DUP7 SUB SLT ISZERO PUSH2 0xBDD JUMPI PUSH1 0x0 DUP1 REVERT JUMPDEST PUSH1 0x0 PUSH2 0xBEB DUP7 DUP3 DUP8 ADD PUSH2 0xB39 JUMP JUMPDEST SWAP4 POP POP PUSH1 0x20 PUSH2 0xBFC DUP7 DUP3 DUP8 ADD PUSH2 0xB39 JUMP JUMPDEST SWAP3 POP POP PUSH1 0x40 PUSH2 0xC0D DUP7 DUP3 DUP8 ADD PUSH2 0xB4E JUMP JUMPDEST SWAP2 POP POP SWAP3 POP SWAP3 POP SWAP3 JUMP JUMPDEST PUSH1 0x0 DUP1 PUSH1 0x40 DUP4 DUP6 SUB SLT ISZERO PUSH2 0xC2A JUMPI PUSH1 0x0 DUP1 REVERT JUMPDEST PUSH1 0x0 PUSH2 0xC38 DUP6 DUP3 DUP7 ADD PUSH2 0xB39 JUMP JUMPDEST SWAP3 POP POP PUSH1 0x20 PUSH2 0xC49 DUP6 DUP3 DUP7 ADD PUSH2 0xB4E JUMP JUMPDEST SWAP2 POP POP SWAP3 POP SWAP3 SWAP1 POP JUMP JUMPDEST PUSH1 0x0 DUP1 PUSH1 0x40 DUP4 DUP6 SUB SLT ISZERO PUSH2 0xC66 JUMPI PUSH1 0x0 DUP1 REVERT JUMPDEST PUSH1 0x0 PUSH2 0xC74 DUP6 DUP3 DUP7 ADD PUSH2 0xB4E JUMP JUMPDEST SWAP3 POP POP PUSH1 0x20 PUSH2 0xC85 DUP6 DUP3 DUP7 ADD PUSH2 0xB4E JUMP JUMPDEST SWAP2 POP POP SWAP3 POP SWAP3 SWAP1 POP JUMP JUMPDEST PUSH2 0xC98 DUP2 PUSH2 0xEAB JUMP JUMPDEST DUP3 MSTORE POP POP JUMP JUMPDEST PUSH1 0x0 PUSH2 0xCA9 DUP3 PUSH2 0xD68 JUMP JUMPDEST PUSH2 0xCB3 DUP2 DUP6 PUSH2 0xD73 JUMP JUMPDEST SWAP4 POP PUSH2 0xCC3 DUP2 DUP6 PUSH1 0x20 DUP7 ADD PUSH2 0xEEE JUMP JUMPDEST PUSH2 0xCCC DUP2 PUSH2 0xFE0 JUMP JUMPDEST DUP5 ADD SWAP2 POP POP SWAP3 SWAP2 POP POP JUMP JUMPDEST PUSH2 0xCE0 DUP2 PUSH2 0xED7 JUMP JUMPDEST DUP3 MSTORE POP POP JUMP JUMPDEST PUSH2 0xCEF DUP2 PUSH2 0xEE1 JUMP JUMPDEST DUP3 MSTORE POP POP JUMP JUMPDEST PUSH1 0x0 PUSH1 0x20 DUP3 ADD SWAP1 POP PUSH2 0xD0A PUSH1 0x0 DUP4 ADD DUP5 PUSH2 0xC8F JUMP JUMPDEST SWAP3 SWAP2 POP POP JUMP JUMPDEST PUSH1 0x0 PUSH1 0x20 DUP3 ADD SWAP1 POP DUP2 DUP2 SUB PUSH1 0x0 DUP4 ADD MSTORE PUSH2 0xD2A DUP2 DUP5 PUSH2 0xC9E JUMP JUMPDEST SWAP1 POP SWAP3 SWAP2 POP POP JUMP JUMPDEST PUSH1 0x0 PUSH1 0x20 DUP3 ADD SWAP1 POP PUSH2 0xD47 PUSH1 0x0 DUP4 ADD DUP5 PUSH2 0xCD7 JUMP JUMPDEST SWAP3 SWAP2 POP POP JUMP JUMPDEST PUSH1 0x0 PUSH1 0x20 DUP3 ADD SWAP1 POP PUSH2 0xD62 PUSH1 0x0 DUP4 ADD DUP5 PUSH2 0xCE6 JUMP JUMPDEST SWAP3 SWAP2 POP POP JUMP JUMPDEST PUSH1 0x0 DUP2 MLOAD SWAP1 POP SWAP2 SWAP1 POP JUMP JUMPDEST PUSH1 0x0 DUP3 DUP3 MSTORE PUSH1 0x20 DUP3 ADD SWAP1 POP SWAP3 SWAP2 POP POP JUMP JUMPDEST PUSH1 0x0 PUSH2 0xD8F DUP3 PUSH2 0xED7 JUMP JUMPDEST SWAP2 POP PUSH2 0xD9A DUP4 PUSH2 0xED7 JUMP JUMPDEST SWAP3 POP DUP3 PUSH32 0xFFFFFFFFFFFFFFFFFFFFFFFFFFFFFFFFFFFFFFFFFFFFFFFFFFFFFFFFFFFFFFFF SUB DUP3 GT ISZERO PUSH2 0xDCF JUMPI PUSH2 0xDCE PUSH2 0xF53 JUMP JUMPDEST JUMPDEST DUP3 DUP3 ADD SWAP1 POP SWAP3 SWAP2 POP POP JUMP JUMPDEST PUSH1 0x0 PUSH2 0xDE5 DUP3 PUSH2 0xED7 JUMP JUMPDEST SWAP2 POP PUSH2 0xDF0 DUP4 PUSH2 0xED7 JUMP JUMPDEST SWAP3 POP DUP3 PUSH2 0xE00 JUMPI PUSH2 0xDFF PUSH2 0xF82 JUMP JUMPDEST JUMPDEST DUP3 DUP3 DIV SWAP1 POP SWAP3 SWAP2 POP POP JUMP JUMPDEST PUSH1 0x0 PUSH2 0xE16 DUP3 PUSH2 0xED7 JUMP JUMPDEST SWAP2 POP PUSH2 0xE21 DUP4 PUSH2 0xED7 JUMP JUMPDEST SWAP3 POP DUP2 PUSH32 0xFFFFFFFFFFFFFFFFFFFFFFFFFFFFFFFFFFFFFFFFFFFFFFFFFFFFFFFFFFFFFFFF DIV DUP4 GT DUP3 ISZERO ISZERO AND ISZERO PUSH2 0xE5A JUMPI PUSH2 0xE59 PUSH2 0xF53 JUMP JUMPDEST JUMPDEST DUP3 DUP3 MUL SWAP1 POP SWAP3 SWAP2 POP POP JUMP JUMPDEST PUSH1 0x0 PUSH2 0xE70 DUP3 PUSH2 0xED7 JUMP JUMPDEST SWAP2 POP PUSH2 0xE7B DUP4 PUSH2 0xED7 JUMP JUMPDEST SWAP3 POP DUP3 DUP3 LT ISZERO PUSH2 0xE8E JUMPI PUSH2 0xE8D PUSH2 0xF53 JUMP JUMPDEST JUMPDEST DUP3 DUP3 SUB SWAP1 POP SWAP3 SWAP2 POP POP JUMP JUMPDEST PUSH1 0x0 PUSH2 0xEA4 DUP3 PUSH2 0xEB7 JUMP JUMPDEST SWAP1 POP SWAP2 SWAP1 POP JUMP JUMPDEST PUSH1 0x0 DUP2 ISZERO ISZERO SWAP1 POP SWAP2 SWAP1 POP JUMP JUMPDEST PUSH1 0x0 PUSH20 0xFFFFFFFFFFFFFFFFFFFFFFFFFFFFFFFFFFFFFFFF DUP3 AND SWAP1 POP SWAP2 SWAP1 POP JUMP JUMPDEST PUSH1 0x0 DUP2 SWAP1 POP SWAP2 SWAP1 POP JUMP JUMPDEST PUSH1 0x0 PUSH1 0xFF DUP3 AND SWAP1 POP SWAP2 SWAP1 POP JUMP JUMPDEST PUSH1 0x0 JUMPDEST DUP4 DUP2 LT ISZERO PUSH2 0xF0C JUMPI DUP1 DUP3 ADD MLOAD DUP2 DUP5 ADD MSTORE PUSH1 0x20 DUP2 ADD SWAP1 POP PUSH2 0xEF1 JUMP JUMPDEST DUP4 DUP2 GT ISZERO PUSH2 0xF1B JUMPI PUSH1 0x0 DUP5 DUP5 ADD MSTORE JUMPDEST POP POP POP POP JUMP JUMPDEST PUSH1 0x0 PUSH1 0x2 DUP3 DIV SWAP1 POP PUSH1 0x1 DUP3 AND DUP1 PUSH2 0xF39 JUMPI PUSH1 0x7F DUP3 AND SWAP2 POP JUMPDEST PUSH1 0x20 DUP3 LT DUP2 EQ ISZERO PUSH2 0xF4D JUMPI PUSH2 0xF4C PUSH2 0xFB1 JUMP JUMPDEST JUMPDEST POP SWAP2 SWAP1 POP JUMP JUMPDEST PUSH32 0x4E487B7100000000000000000000000000000000000000000000000000000000 PUSH1 0x0 MSTORE PUSH1 0x11 PUSH1 0x4 MSTORE PUSH1 0x24 PUSH1 0x0 REVERT JUMPDEST PUSH32 0x4E487B7100000000000000000000000000000000000000000000000000000000 PUSH1 0x0 MSTORE PUSH1 0x12 PUSH1 0x4 MSTORE PUSH1 0x24 PUSH1 0x0 REVERT JUMPDEST PUSH32 0x4E487B7100000000000000000000000000000000000000000000000000000000 PUSH1 0x0 MSTORE PUSH1 0x22 PUSH1 0x4 MSTORE PUSH1 0x24 PUSH1 0x0 REVERT JUMPDEST PUSH1 0x0 PUSH1 0x1F NOT PUSH1 0x1F DUP4 ADD AND SWAP1 POP SWAP2 SWAP1 POP JUMP JUMPDEST PUSH2 0xFFA DUP2 PUSH2 0xE99 JUMP JUMPDEST DUP2 EQ PUSH2 0x1005 JUMPI PUSH1 0x0 DUP1 REVERT JUMPDEST POP JUMP JUMPDEST PUSH2 0x1011 DUP2 PUSH2 0xED7 JUMP JUMPDEST DUP2 EQ PUSH2 0x101C JUMPI PUSH1 0x0 DUP1 REVERT JUMPDEST POP JUMP INVALID LOG2 PUSH5 0x6970667358 0x22 SLT KECCAK256 REVERT BALANCE EXTCODECOPY DUP6 SDIV SWAP8 PUSH9 0xD1A02C73A1AF8D3A4D MULMOD 0xD9 LOG0 0xF 0xDD 0xC3 PUSH30 0xEF0AB9181D622EEC7D64736F6C6343000804003300000000000000000000 "
				},
				"gasEstimates": {
					"creation": {
						"codeDepositCost": "836200",
						"executionCost": "infinite",
						"totalCost": "infinite"
					},
					"external": {
						"_totalSupply()": "1196",
						"allowance(address,address)": "infinite",
						"approve(address,uint256)": "infinite",
						"balanceOf(address)": "1630",
						"decimals()": "1216",
						"name()": "infinite",
						"safeAdd(uint256,uint256)": "infinite",
						"safeDiv(uint256,uint256)": "infinite",
						"safeMul(uint256,uint256)": "infinite",
						"safeSub(uint256,uint256)": "infinite",
						"symbol()": "infinite",
						"totalSupply()": "infinite",
						"transfer(address,uint256)": "infinite",
						"transferFrom(address,address,uint256)": "infinite"
					}
				},
				"methodIdentifiers": {
					"_totalSupply()": "3eaaf86b",
					"allowance(address,address)": "dd62ed3e",
					"approve(address,uint256)": "095ea7b3",
					"balanceOf(address)": "70a08231",
					"decimals()": "313ce567",
					"name()": "06fdde03",
					"safeAdd(uint256,uint256)": "e6cb9013",
					"safeDiv(uint256,uint256)": "b5931f7c",
					"safeMul(uint256,uint256)": "d05c78da",
					"safeSub(uint256,uint256)": "a293d1e8",
					"symbol()": "95d89b41",
					"totalSupply()": "18160ddd",
					"transfer(address,uint256)": "a9059cbb",
					"transferFrom(address,address,uint256)": "23b872dd"
				}
			},
			"userdoc": {
				"kind": "user",
				"methods": {
					"constructor": {
						"notice": "Constrctor function Initializes contract with initial supply tokens to the creator of the contract"
					}
				},
				"version": 1
			}
		}
	}
}